{
  "contractName": "AlienStatistics",
  "abi": [
    {
      "constant": true,
      "inputs": [
        {
          "name": "_address",
          "type": "address"
        },
        {
          "name": "_tokenId",
          "type": "uint256"
        }
      ],
      "name": "balanceOf",
      "outputs": [
        {
          "name": "",
          "type": "uint256"
        }
      ],
      "payable": false,
      "stateMutability": "view",
      "type": "function"
    },
    {
      "constant": true,
      "inputs": [
        {
          "name": "_interfaceId",
          "type": "bytes4"
        }
      ],
      "name": "supportsInterface",
      "outputs": [
        {
          "name": "",
          "type": "bool"
        }
      ],
      "payable": false,
      "stateMutability": "view",
      "type": "function"
    },
    {
      "constant": true,
      "inputs": [],
      "name": "name",
      "outputs": [
        {
          "name": "",
          "type": "string"
        }
      ],
      "payable": false,
      "stateMutability": "view",
      "type": "function"
    },
    {
      "constant": true,
      "inputs": [
        {
          "name": "_tokenId",
          "type": "uint256"
        }
      ],
      "name": "getApproved",
      "outputs": [
        {
          "name": "",
          "type": "address"
        }
      ],
      "payable": false,
      "stateMutability": "view",
      "type": "function"
    },
    {
      "constant": false,
      "inputs": [
        {
          "name": "_to",
          "type": "address"
        },
        {
          "name": "_tokenId",
          "type": "uint256"
        }
      ],
      "name": "approve",
      "outputs": [],
      "payable": false,
      "stateMutability": "nonpayable",
      "type": "function"
    },
    {
      "constant": true,
      "inputs": [],
      "name": "implementsERC721",
      "outputs": [
        {
          "name": "",
          "type": "bool"
        }
      ],
      "payable": false,
      "stateMutability": "pure",
      "type": "function"
    },
    {
      "constant": false,
      "inputs": [
        {
          "name": "_alienOwner",
          "type": "address"
        },
        {
          "name": "_name",
          "type": "string"
        },
        {
          "name": "_attack",
          "type": "uint256"
        },
        {
          "name": "_defence",
          "type": "uint256"
        }
      ],
      "name": "CreateAlien",
      "outputs": [],
      "payable": false,
      "stateMutability": "nonpayable",
      "type": "function"
    },
    {
      "constant": true,
      "inputs": [],
      "name": "totalSupply",
      "outputs": [
        {
          "name": "",
          "type": "uint256"
        }
      ],
      "payable": false,
      "stateMutability": "view",
      "type": "function"
    },
    {
      "constant": true,
      "inputs": [],
      "name": "InterfaceId_ERC165",
      "outputs": [
        {
          "name": "",
          "type": "bytes4"
        }
      ],
      "payable": false,
      "stateMutability": "view",
      "type": "function"
    },
    {
      "constant": true,
      "inputs": [
        {
          "name": "_owner",
          "type": "address"
        }
      ],
      "name": "tokensOwned",
      "outputs": [
        {
          "name": "indexes",
          "type": "uint256[]"
        },
        {
          "name": "balances",
          "type": "uint256[]"
        }
      ],
      "payable": false,
      "stateMutability": "view",
      "type": "function"
    },
    {
      "constant": false,
      "inputs": [
        {
          "name": "_from",
          "type": "address"
        },
        {
          "name": "_to",
          "type": "address"
        },
        {
          "name": "_tokenId",
          "type": "uint256"
        }
      ],
      "name": "transferFrom",
      "outputs": [],
      "payable": false,
      "stateMutability": "nonpayable",
      "type": "function"
    },
    {
      "constant": true,
      "inputs": [
        {
          "name": "_owner",
          "type": "address"
        },
        {
          "name": "_index",
          "type": "uint256"
        }
      ],
      "name": "tokenOfOwnerByIndex",
      "outputs": [
        {
          "name": "_tokenId",
          "type": "uint256"
        }
      ],
      "payable": false,
      "stateMutability": "view",
      "type": "function"
    },
    {
      "constant": true,
      "inputs": [
        {
          "name": "CardSymbol",
          "type": "string"
        }
      ],
      "name": "CardGetterSymbol",
      "outputs": [
        {
          "name": "",
          "type": "string"
        }
      ],
      "payable": false,
      "stateMutability": "pure",
      "type": "function"
    },
    {
      "constant": true,
      "inputs": [
        {
          "name": "",
          "type": "uint256"
        }
      ],
      "name": "alien",
      "outputs": [
        {
          "name": "alienOwner",
          "type": "address"
        },
        {
          "name": "name",
          "type": "string"
        },
        {
          "name": "attack",
          "type": "uint256"
        },
        {
          "name": "defence",
          "type": "uint256"
        }
      ],
      "payable": false,
      "stateMutability": "view",
      "type": "function"
    },
    {
      "constant": false,
      "inputs": [
        {
          "name": "_from",
          "type": "address"
        },
        {
          "name": "_to",
          "type": "address"
        },
        {
          "name": "_tokenId",
          "type": "uint256"
        }
      ],
      "name": "safeTransferFrom",
      "outputs": [],
      "payable": false,
      "stateMutability": "nonpayable",
      "type": "function"
    },
    {
      "constant": true,
      "inputs": [
        {
          "name": "_tokenId",
          "type": "uint256"
        }
      ],
      "name": "exists",
      "outputs": [
        {
          "name": "",
          "type": "bool"
        }
      ],
      "payable": false,
      "stateMutability": "view",
      "type": "function"
    },
    {
      "constant": true,
      "inputs": [
        {
          "name": "_index",
          "type": "uint256"
        }
      ],
      "name": "tokenByIndex",
      "outputs": [
        {
          "name": "",
          "type": "uint256"
        }
      ],
      "payable": false,
      "stateMutability": "view",
      "type": "function"
    },
    {
      "constant": true,
      "inputs": [
        {
          "name": "_tokenId",
          "type": "uint256"
        }
      ],
      "name": "ownerOf",
      "outputs": [
        {
          "name": "",
          "type": "address"
        }
      ],
      "payable": false,
      "stateMutability": "view",
      "type": "function"
    },
    {
      "constant": true,
      "inputs": [
        {
          "name": "_owner",
          "type": "address"
        }
      ],
      "name": "balanceOf",
      "outputs": [
        {
          "name": "balance",
          "type": "uint256"
        }
      ],
      "payable": false,
      "stateMutability": "view",
      "type": "function"
    },
    {
      "constant": true,
      "inputs": [],
      "name": "symbol",
      "outputs": [
        {
          "name": "",
          "type": "string"
        }
      ],
      "payable": false,
      "stateMutability": "view",
      "type": "function"
    },
    {
      "constant": false,
      "inputs": [
        {
          "name": "_operator",
          "type": "address"
        },
        {
          "name": "_approved",
          "type": "bool"
        }
      ],
      "name": "setApprovalForAll",
      "outputs": [],
      "payable": false,
      "stateMutability": "nonpayable",
      "type": "function"
    },
    {
      "constant": false,
      "inputs": [
        {
          "name": "_from",
          "type": "address"
        },
        {
          "name": "_to",
          "type": "address"
        },
        {
          "name": "_tokenId",
          "type": "uint256"
        },
        {
          "name": "_data",
          "type": "bytes"
        }
      ],
      "name": "safeTransferFrom",
      "outputs": [],
      "payable": false,
      "stateMutability": "nonpayable",
      "type": "function"
    },
    {
      "constant": false,
      "inputs": [
        {
          "name": "_alienId",
          "type": "uint256"
        }
      ],
      "name": "AddWeaponry",
      "outputs": [],
      "payable": false,
      "stateMutability": "nonpayable",
      "type": "function"
    },
    {
      "constant": true,
      "inputs": [
        {
          "name": "CardName",
          "type": "string"
        }
      ],
      "name": "CardGetterName",
      "outputs": [
        {
          "name": "",
          "type": "string"
        }
      ],
      "payable": false,
      "stateMutability": "pure",
      "type": "function"
    },
    {
      "constant": true,
      "inputs": [
        {
          "name": "_tokenId",
          "type": "uint256"
        }
      ],
      "name": "tokenURI",
      "outputs": [
        {
          "name": "tokenUri",
          "type": "string"
        }
      ],
      "payable": false,
      "stateMutability": "view",
      "type": "function"
    },
    {
      "constant": true,
      "inputs": [
        {
          "name": "_owner",
          "type": "address"
        },
        {
          "name": "_operator",
          "type": "address"
        }
      ],
      "name": "isApprovedForAll",
      "outputs": [
        {
          "name": "isOperator",
          "type": "bool"
        }
      ],
      "payable": false,
      "stateMutability": "view",
      "type": "function"
    },
    {
      "anonymous": false,
      "inputs": [
        {
          "indexed": false,
          "name": "alienOwner",
          "type": "address"
        },
        {
          "indexed": false,
          "name": "alienId",
          "type": "uint256"
        },
        {
          "indexed": false,
          "name": "name",
          "type": "string"
        },
        {
          "indexed": false,
          "name": "attack",
          "type": "uint256"
        },
        {
          "indexed": false,
          "name": "defence",
          "type": "uint256"
        }
      ],
      "name": "AlienStarter",
      "type": "event"
    },
    {
      "anonymous": false,
      "inputs": [
        {
          "indexed": true,
          "name": "_from",
          "type": "address"
        },
        {
          "indexed": true,
          "name": "_to",
          "type": "address"
        },
        {
          "indexed": true,
          "name": "_tokenId",
          "type": "uint256"
        }
      ],
      "name": "Transfer",
      "type": "event"
    },
    {
      "anonymous": false,
      "inputs": [
        {
          "indexed": true,
          "name": "_owner",
          "type": "address"
        },
        {
          "indexed": true,
          "name": "_approved",
          "type": "address"
        },
        {
          "indexed": true,
          "name": "_tokenId",
          "type": "uint256"
        }
      ],
      "name": "Approval",
      "type": "event"
    },
    {
      "anonymous": false,
      "inputs": [
        {
          "indexed": true,
          "name": "_owner",
          "type": "address"
        },
        {
          "indexed": true,
          "name": "_operator",
          "type": "address"
        },
        {
          "indexed": false,
          "name": "_approved",
          "type": "bool"
        }
      ],
      "name": "ApprovalForAll",
      "type": "event"
    },
    {
      "constant": true,
      "inputs": [],
      "name": "AlienCount",
      "outputs": [
        {
          "name": "",
          "type": "uint256"
        }
      ],
      "payable": false,
      "stateMutability": "view",
      "type": "function"
    }
  ],
  "bytecode": "0x6080604052600a60075560196008556008546007540a600955620000556301ffc9a77c01000000000000000000000000000000000000000000000000000000000262000098640100000000026401000000009004565b62000092635b5e139f7c01000000000000000000000000000000000000000000000000000000000262000098640100000000026401000000009004565b62000156565b63ffffffff7c010000000000000000000000000000000000000000000000000000000002817bffffffffffffffffffffffffffffffffffffffffffffffffffffffff191614151515620000ea57600080fd5b6001600080837bffffffffffffffffffffffffffffffffffffffffffffffffffffffff19167bffffffffffffffffffffffffffffffffffffffffffffffffffffffff1916815260200190815260200160002060006101000a81548160ff02191690831515021790555050565b6129fb80620001666000396000f30060806040526004361061015e576000357c0100000000000000000000000000000000000000000000000000000000900463ffffffff168062fdd58e1461016357806301ffc9a7146101c457806306fdde0314610228578063081812fc146102b8578063095ea7b3146103255780631051db3414610372578063176355ec146103a157806318160ddd1461043e57806319fa8f501461046957806321cda790146104d257806323b872dd146105b25780632f745c591461061f57806334b143741461068057806335697d8c146107625780633f7105551461084957806342842e0e146108745780634f558e79146108e15780634f6ccce7146109265780636352211e1461096757806370a08231146109d457806395d89b4114610a2b578063a22cb46514610abb578063b88d4fde14610b0a578063b9b9b83c14610bbd578063bb99685e14610bea578063c87b56dd14610ccc578063e985e9c514610d72575b600080fd5b34801561016f57600080fd5b506101ae600480360381019080803573ffffffffffffffffffffffffffffffffffffffff16906020019092919080359060200190929190505050610ded565b6040518082815260200191505060405180910390f35b3480156101d057600080fd5b5061020e60048036038101908080357bffffffffffffffffffffffffffffffffffffffffffffffffffffffff19169060200190929190505050610e6c565b604051808215151515815260200191505060405180910390f35b34801561023457600080fd5b5061023d610ed3565b6040518080602001828103825283818151815260200191508051906020019080838360005b8381101561027d578082015181840152602081019050610262565b50505050905090810190601f1680156102aa5780820380516001836020036101000a031916815260200191505b509250505060405180910390f35b3480156102c457600080fd5b506102e360048036038101908080359060200190929190505050610f10565b604051808273ffffffffffffffffffffffffffffffffffffffff1673ffffffffffffffffffffffffffffffffffffffff16815260200191505060405180910390f35b34801561033157600080fd5b50610370600480360381019080803573ffffffffffffffffffffffffffffffffffffffff16906020019092919080359060200190929190505050610f4d565b005b34801561037e57600080fd5b50610387611092565b604051808215151515815260200191505060405180910390f35b3480156103ad57600080fd5b5061043c600480360381019080803573ffffffffffffffffffffffffffffffffffffffff169060200190929190803590602001908201803590602001908080601f0160208091040260200160405190810160405280939291908181526020018383808284378201915050505050509192919290803590602001909291908035906020019092919050505061109b565b005b34801561044a57600080fd5b506104536110fb565b6040518082815260200191505060405180910390f35b34801561047557600080fd5b5061047e611108565b60405180827bffffffffffffffffffffffffffffffffffffffffffffffffffffffff19167bffffffffffffffffffffffffffffffffffffffffffffffffffffffff1916815260200191505060405180910390f35b3480156104de57600080fd5b50610513600480360381019080803573ffffffffffffffffffffffffffffffffffffffff16906020019092919050505061112f565b604051808060200180602001838103835285818151815260200191508051906020019060200280838360005b8381101561055a57808201518184015260208101905061053f565b50505050905001838103825284818151815260200191508051906020019060200280838360005b8381101561059c578082015181840152602081019050610581565b5050505090500194505050505060405180910390f35b3480156105be57600080fd5b5061061d600480360381019080803573ffffffffffffffffffffffffffffffffffffffff169060200190929190803573ffffffffffffffffffffffffffffffffffffffff1690602001909291908035906020019092919050505061133a565b005b34801561062b57600080fd5b5061066a600480360381019080803573ffffffffffffffffffffffffffffffffffffffff1690602001909291908035906020019092919050505061134a565b6040518082815260200191505060405180910390f35b34801561068c57600080fd5b506106e7600480360381019080803590602001908201803590602001908080601f0160208091040260200160405190810160405280939291908181526020018383808284378201915050505050509192919290505050611355565b6040518080602001828103825283818151815260200191508051906020019080838360005b8381101561072757808201518184015260208101905061070c565b50505050905090810190601f1680156107545780820380516001836020036101000a031916815260200191505b509250505060405180910390f35b34801561076e57600080fd5b5061078d60048036038101908080359060200190929190505050611397565b604051808573ffffffffffffffffffffffffffffffffffffffff1673ffffffffffffffffffffffffffffffffffffffff16815260200180602001848152602001838152602001828103825285818151815260200191508051906020019080838360005b8381101561080b5780820151818401526020810190506107f0565b50505050905090810190601f1680156108385780820380516001836020036101000a031916815260200191505b509550505050505060405180910390f35b34801561085557600080fd5b5061085e61148e565b6040518082815260200191505060405180910390f35b34801561088057600080fd5b506108df600480360381019080803573ffffffffffffffffffffffffffffffffffffffff169060200190929190803573ffffffffffffffffffffffffffffffffffffffff169060200190929190803590602001909291905050506114d5565b005b3480156108ed57600080fd5b5061090c600480360381019080803590602001909291905050506114f6565b604051808215151515815260200191505060405180910390f35b34801561093257600080fd5b5061095160048036038101908080359060200190929190505050611516565b6040518082815260200191505060405180910390f35b34801561097357600080fd5b506109926004803603810190808035906020019092919050505061154e565b604051808273ffffffffffffffffffffffffffffffffffffffff1673ffffffffffffffffffffffffffffffffffffffff16815260200191505060405180910390f35b3480156109e057600080fd5b50610a15600480360381019080803573ffffffffffffffffffffffffffffffffffffffff169060200190929190505050611662565b6040518082815260200191505060405180910390f35b348015610a3757600080fd5b50610a4061167c565b6040518080602001828103825283818151815260200191508051906020019080838360005b83811015610a80578082015181840152602081019050610a65565b50505050905090810190601f168015610aad5780820380516001836020036101000a031916815260200191505b509250505060405180910390f35b348015610ac757600080fd5b50610b08600480360381019080803573ffffffffffffffffffffffffffffffffffffffff1690602001909291908035151590602001909291905050506116b9565b005b348015610b1657600080fd5b50610bbb600480360381019080803573ffffffffffffffffffffffffffffffffffffffff169060200190929190803573ffffffffffffffffffffffffffffffffffffffff16906020019092919080359060200190929190803590602001908201803590602001908080601f01602080910402602001604051908101604052809392919081815260200183838082843782019150505050505091929192905050506117ba565b005b348015610bc957600080fd5b50610be860048036038101908080359060200190929190505050611871565b005b348015610bf657600080fd5b50610c51600480360381019080803590602001908201803590602001908080601f0160208091040260200160405190810160405280939291908181526020018383808284378201915050505050509192919290505050611916565b6040518080602001828103825283818151815260200191508051906020019080838360005b83811015610c91578082015181840152602081019050610c76565b50505050905090810190601f168015610cbe5780820380516001836020036101000a031916815260200191505b509250505060405180910390f35b348015610cd857600080fd5b50610cf760048036038101908080359060200190929190505050611958565b6040518080602001828103825283818151815260200191508051906020019080838360005b83811015610d37578082015181840152602081019050610d1c565b50505050905090810190601f168015610d645780820380516001836020036101000a031916815260200191505b509250505060405180910390f35b348015610d7e57600080fd5b50610dd3600480360381019080803573ffffffffffffffffffffffffffffffffffffffff169060200190929190803573ffffffffffffffffffffffffffffffffffffffff169060200190929190505050611d34565b604051808215151515815260200191505060405180910390f35b6000806000610dfb84611dc8565b91509150610e6281600260008873ffffffffffffffffffffffffffffffffffffffff1673ffffffffffffffffffffffffffffffffffffffff168152602001908152602001600020600085815260200190815260200160002054611e0590919063ffffffff16565b9250505092915050565b6000806000837bffffffffffffffffffffffffffffffffffffffffffffffffffffffff19167bffffffffffffffffffffffffffffffffffffffffffffffffffffffff1916815260200190815260200160002060009054906101000a900460ff169050919050565b60606040805190810160405280600f81526020017f45524337323158546f6b656e4e46540000000000000000000000000000000000815250905090565b60006005600083815260200190815260200160002060009054906101000a900473ffffffffffffffffffffffffffffffffffffffff169050919050565b6000610f588261154e565b90508073ffffffffffffffffffffffffffffffffffffffff168373ffffffffffffffffffffffffffffffffffffffff1614151515610f9557600080fd5b8073ffffffffffffffffffffffffffffffffffffffff163373ffffffffffffffffffffffffffffffffffffffff161480610fd55750610fd48133611d34565b5b1515610fe057600080fd5b826005600084815260200190815260200160002060006101000a81548173ffffffffffffffffffffffffffffffffffffffff021916908373ffffffffffffffffffffffffffffffffffffffff160217905550818373ffffffffffffffffffffffffffffffffffffffff168273ffffffffffffffffffffffffffffffffffffffff167f8c5be1e5ebec7d5bd14f71427d1e84f3dd0314c0f7b2291e5b200ac8c7c3b92560405160405180910390a4505050565b60006001905090565b6000600c60003373ffffffffffffffffffffffffffffffffffffffff1673ffffffffffffffffffffffffffffffffffffffff168152602001908152602001600020541415156110e957600080fd5b6110f584848484611e39565b50505050565b6000600180549050905090565b6301ffc9a77c01000000000000000000000000000000000000000000000000000000000281565b606080600060608060008060006060806111476110fb565b9750876040519080825280602002602001820160405280156111785781602001602082028038833980820191505090505b509650876040519080825280602002602001820160405280156111aa5781602001602082028038833980820191505090505b509550600093505b87841015611241576001848154811015156111c957fe5b9060005260206000200154925060006111e28c85610ded565b1115611234576111f28b84610ded565b868681518110151561120057fe5b906020019060200201818152505082878681518110151561121d57fe5b906020019060200201818152505084806001019550505b83806001019450506111b2565b846040519080825280602002602001820160405280156112705781602001602082028038833980820191505090505b509150846040519080825280602002602001820160405280156112a25781602001602082028038833980820191505090505b509050600093505b848410156113275785848151811015156112c057fe5b9060200190602002015182858151811015156112d857fe5b906020019060200201818152505086848151811015156112f457fe5b90602001906020020151818581518110151561130c57fe5b906020019060200201818152505083806001019450506112aa565b8082995099505050505050505050915091565b611345838383612186565b505050565b600080905092915050565b60606040805190810160405280600581526020017f414c49454e0000000000000000000000000000000000000000000000000000008152509150819050919050565b600a818154811015156113a657fe5b90600052602060002090600402016000915090508060000160009054906101000a900473ffffffffffffffffffffffffffffffffffffffff1690806001018054600181600116156101000203166002900480601f0160208091040260200160405190810160405280929190818152602001828054600181600116156101000203166002900480156114785780601f1061144d57610100808354040283529160200191611478565b820191906000526020600020905b81548152906001019060200180831161145b57829003601f168201915b5050505050908060020154908060030154905084565b6000600c60003373ffffffffffffffffffffffffffffffffffffffff1673ffffffffffffffffffffffffffffffffffffffff16815260200190815260200160002054905090565b6114f183838360206040519081016040528060008152506117ba565b505050565b600080600660008481526020019081526020016000205414159050919050565b60006115206110fb565b8210151561152d57600080fd5b60018281548110151561153c57fe5b90600052602060002001549050919050565b60008073ffffffffffffffffffffffffffffffffffffffff166003600084815260200190815260200160002060009054906101000a900473ffffffffffffffffffffffffffffffffffffffff1673ffffffffffffffffffffffffffffffffffffffff1614151515611627576040517f08c379a00000000000000000000000000000000000000000000000000000000081526004018080602001828103825260138152602001807f436f696e20646f6573206e6f742065786973740000000000000000000000000081525060200191505060405180910390fd5b6003600083815260200190815260200160002060009054906101000a900473ffffffffffffffffffffffffffffffffffffffff169050919050565b6000606061166f8361112f565b9150508051915050919050565b60606040805190810160405280600781526020017f4552433732315800000000000000000000000000000000000000000000000000815250905090565b80600460003373ffffffffffffffffffffffffffffffffffffffff1673ffffffffffffffffffffffffffffffffffffffff16815260200190815260200160002060008473ffffffffffffffffffffffffffffffffffffffff1673ffffffffffffffffffffffffffffffffffffffff16815260200190815260200160002060006101000a81548160ff0219169083151502179055508173ffffffffffffffffffffffffffffffffffffffff163373ffffffffffffffffffffffffffffffffffffffff167f17307eab39ab6107e8899845ad3d59bd9653f200f220920489ca2b5937696c3183604051808215151515815260200191505060405180910390a35050565b6117c5848484612186565b6117d184848484612339565b151561186b576040517f08c379a00000000000000000000000000000000000000000000000000000000081526004018080602001828103825260328152602001807f53656e7420746f206120636f6e7472616374207768696368206973206e6f742081526020017f616e20455243373231207265636569766572000000000000000000000000000081525060400191505060405180910390fd5b50505050565b803373ffffffffffffffffffffffffffffffffffffffff16600b600083815260200190815260200160002060000160009054906101000a900473ffffffffffffffffffffffffffffffffffffffff1673ffffffffffffffffffffffffffffffffffffffff161415156118e257600080fd5b600a828154811015156118f157fe5b9060005260206000209060040201600201600081548092919060010191905055505050565b60606040805190810160405280600d81526020017f526567756c617220416c69656e000000000000000000000000000000000000008152509150819050919050565b606080611964836114f6565b15156119d8576040517f08c379a00000000000000000000000000000000000000000000000000000000081526004018080602001828103825260138152602001807f546f6b656e20646f65736e27742065786973740000000000000000000000000081525060200191505060405180910390fd5b606060405190810160405280603181526020017f68747470733a2f2f72696e6b6562792e6c6f6f6d2e67616d65732f657263373281526020017f312f7a6d622f3030303030302e6a736f6e0000000000000000000000000000008152509150819050600a620186a084811515611a4a57fe5b04811515611a5457fe5b066030017f010000000000000000000000000000000000000000000000000000000000000002816026815181101515611a8957fe5b9060200101907effffffffffffffffffffffffffffffffffffffffffffffffffffffffffffff1916908160001a905350600a61271084811515611ac857fe5b04811515611ad257fe5b066030017f010000000000000000000000000000000000000000000000000000000000000002816027815181101515611b0757fe5b9060200101907effffffffffffffffffffffffffffffffffffffffffffffffffffffffffffff1916908160001a905350600a6103e884811515611b4657fe5b04811515611b5057fe5b066030017f010000000000000000000000000000000000000000000000000000000000000002816028815181101515611b8557fe5b9060200101907effffffffffffffffffffffffffffffffffffffffffffffffffffffffffffff1916908160001a905350600a606484811515611bc357fe5b04811515611bcd57fe5b066030017f010000000000000000000000000000000000000000000000000000000000000002816029815181101515611c0257fe5b9060200101907effffffffffffffffffffffffffffffffffffffffffffffffffffffffffffff1916908160001a905350600a8084811515611c3f57fe5b04811515611c4957fe5b066030017f01000000000000000000000000000000000000000000000000000000000000000281602a815181101515611c7e57fe5b9060200101907effffffffffffffffffffffffffffffffffffffffffffffffffffffffffffff1916908160001a905350600a600184811515611cbc57fe5b04811515611cc657fe5b066030017f01000000000000000000000000000000000000000000000000000000000000000281602b815181101515611cfb57fe5b9060200101907effffffffffffffffffffffffffffffffffffffffffffffffffffffffffffff1916908160001a90535081915050919050565b6000600460008473ffffffffffffffffffffffffffffffffffffffff1673ffffffffffffffffffffffffffffffffffffffff16815260200190815260200160002060008373ffffffffffffffffffffffffffffffffffffffff1673ffffffffffffffffffffffffffffffffffffffff16815260200190815260200160002060009054906101000a900460ff16905092915050565b60008061010060108402811515611ddb57fe5b0491506010610100811515611dec57fe5b0483811515611df757fe5b069050818191509150915091565b60008060006001601060019060020a02039150600184016010026101000390508181869060020a9004169250505092915050565b60006001600a6080604051908101604052808873ffffffffffffffffffffffffffffffffffffffff1681526020018781526020016000815260200160008152509080600181540180825580915050906001820390600052602060002090600402016000909192909190915060008201518160000160006101000a81548173ffffffffffffffffffffffffffffffffffffffff021916908373ffffffffffffffffffffffffffffffffffffffff1602179055506020820151816001019080519060200190611f0792919061292a565b506040820151816002015560608201518160030155505003905033600a82815481101515611f3157fe5b906000526020600020906004020160000160006101000a81548173ffffffffffffffffffffffffffffffffffffffff021916908373ffffffffffffffffffffffffffffffffffffffff1602179055506080604051908101604052808673ffffffffffffffffffffffffffffffffffffffff168152602001858152602001600081526020016000815250600b600083815260200190815260200160002060008201518160000160006101000a81548173ffffffffffffffffffffffffffffffffffffffff021916908373ffffffffffffffffffffffffffffffffffffffff160217905550602082015181600101908051906020019061203092919061292a565b506040820151816002015560608201518160030155905050600c60003373ffffffffffffffffffffffffffffffffffffffff1673ffffffffffffffffffffffffffffffffffffffff168152602001908152602001600020600081548092919060010191905055507f707b03f165a4c536792c0905ba87ef1d59a678a5c9dfb08a1515574d64b5084f8582868686604051808673ffffffffffffffffffffffffffffffffffffffff1673ffffffffffffffffffffffffffffffffffffffff16815260200185815260200180602001848152602001838152602001828103825285818151815260200191508051906020019080838360005b83811015612141578082015181840152602081019050612126565b50505050905090810190601f16801561216e5780820380516001836020036101000a031916815260200191505b50965050505050505060405180910390a15050505050565b600160066000838152602001908152602001600020541415156121a857600080fd5b6121bb836121b58361154e565b8361255b565b15156121c657600080fd5b600073ffffffffffffffffffffffffffffffffffffffff168273ffffffffffffffffffffffffffffffffffffffff161415151561226b576040517f08c379a00000000000000000000000000000000000000000000000000000000081526004018080602001828103825260128152602001807f496e76616c696420746f2061646472657373000000000000000000000000000081525060200191505060405180910390fd5b6122798382600060026125e4565b6122878282600160026125e4565b816003600083815260200190815260200160002060006101000a81548173ffffffffffffffffffffffffffffffffffffffff021916908373ffffffffffffffffffffffffffffffffffffffff160217905550808273ffffffffffffffffffffffffffffffffffffffff168473ffffffffffffffffffffffffffffffffffffffff167fddf252ad1be2c89b69c2b068fc378daa952ba7f163c4a11628f55a4df523b3ef60405160405180910390a4505050565b60008061235b8573ffffffffffffffffffffffffffffffffffffffff166126b7565b151561236a5760019150612552565b8473ffffffffffffffffffffffffffffffffffffffff1663150b7a02338887876040518563ffffffff167c0100000000000000000000000000000000000000000000000000000000028152600401808573ffffffffffffffffffffffffffffffffffffffff1673ffffffffffffffffffffffffffffffffffffffff1681526020018473ffffffffffffffffffffffffffffffffffffffff1673ffffffffffffffffffffffffffffffffffffffff16815260200183815260200180602001828103825283818151815260200191508051906020019080838360005b8381101561245f578082015181840152602081019050612444565b50505050905090810190601f16801561248c5780820380516001836020036101000a031916815260200191505b5095505050505050602060405180830381600087803b1580156124ae57600080fd5b505af11580156124c2573d6000803e3d6000fd5b505050506040513d60208110156124d857600080fd5b8101908080519060200190929190505050905063150b7a027c0100000000000000000000000000000000000000000000000000000000027bffffffffffffffffffffffffffffffffffffffffffffffffffffffff1916817bffffffffffffffffffffffffffffffffffffffffffffffffffffffff19161491505b50949350505050565b60008273ffffffffffffffffffffffffffffffffffffffff168473ffffffffffffffffffffffffffffffffffffffff1614806125ca57508373ffffffffffffffffffffffffffffffffffffffff166125b283610f10565b73ffffffffffffffffffffffffffffffffffffffff16145b806125db57506125da8385611d34565b5b90509392505050565b6000806125f085611dc8565b9150915061265b818585600260008b73ffffffffffffffffffffffffffffffffffffffff1673ffffffffffffffffffffffffffffffffffffffff1681526020019081526020016000206000878152602001908152602001600020546126ca909392919063ffffffff16565b600260008873ffffffffffffffffffffffffffffffffffffffff1673ffffffffffffffffffffffffffffffffffffffff168152602001908152602001600020600084815260200190815260200160002081905550505050505050565b600080823b905060008111915050919050565b600080600060028111156126da57fe5b8360028111156126e657fe5b141561271c576126f68686611e05565b90506127158686612710878561281790919063ffffffff16565b612833565b915061280b565b6001600281111561272957fe5b83600281111561273557fe5b141561276b576127458686611e05565b9050612764868661275f878561291190919063ffffffff16565b612833565b915061280a565b60028081111561277757fe5b83600281111561278357fe5b141561279b57612794868686612833565b9150612809565b6040517f08c379a00000000000000000000000000000000000000000000000000000000081526004018080602001828103825260118152602001807f496e76616c6964206f7065726174696f6e00000000000000000000000000000081525060200191505060405180910390fd5b5b5b81915050949350505050565b6000818301905082811015151561282a57fe5b80905092915050565b6000806000601060020a841015156128d9576040517f08c379a00000000000000000000000000000000000000000000000000000000081526004018080602001828103825260238152602001807f416d6f756e7420746f20777269746520696e2062696e20697320746f6f206c6181526020017f726765000000000000000000000000000000000000000000000000000000000081525060400191505060405180910390fd5b6001601060019060020a020391506001850160100261010003905080849060020a0281839060020a0219871617925050509392505050565b600082821115151561291f57fe5b818303905092915050565b828054600181600116156101000203166002900490600052602060002090601f016020900481019282601f1061296b57805160ff1916838001178555612999565b82800160010185558215612999579182015b8281111561299857825182559160200191906001019061297d565b5b5090506129a691906129aa565b5090565b6129cc91905b808211156129c85760008160009055506001016129b0565b5090565b905600a165627a7a7230582093c763701b70c88ddda5fb548fd89eab0be429b9ddba3e02a30a62f981c6993f0029",
  "source": "pragma solidity ^0.4.24;\r\n\r\nimport \"./AlienSpawner.sol\";\r\n\r\ncontract AlienStatistics is AlienCreation {\r\n\r\n///#DEV Return Alien Count\r\nfunction AlienCount() public view returns (uint) {\r\nreturn TotalCount[msg.sender];\r\n}\r\n\r\n\r\n}\r\n",
  "sourcePath": "C:/Shared/Omni Battle/omnibattledev/contracts/AlienStatistics.sol",
  "compiler": {
    "name": "solc",
    "version": "0.4.24+commit.e67f0147.Emscripten.clang"
  },
  "schemaVersion": "3.0.0",
  "updatedAt": "2018-12-29T01:51:29.660Z",
  "devdoc": {
    "methods": {
      "approve(address,uint256)": {
        "details": "Approves another address to transfer the given token ID\r The zero address indicates there is no approved address.\r There can only be one approved address per token at a given time.\r Can only be called by the token owner or an approved operator.\r",
        "params": {
          "_to": "address to be approved for the given token ID\r",
          "_tokenId": "uint256 ID of the token to be approved\r"
        }
      },
      "balanceOf(address)": {
        "details": "Gets the number of tokens owned by the address we are checking\r",
        "params": {
          "_owner": "The adddress we are checking\r"
        },
        "return": "balance The unique amount of tokens owned\r"
      },
      "balanceOf(address,uint256)": {
        "details": "return the _tokenId type' balance of _address\r",
        "params": {
          "_address": "Address to query balance of\r",
          "_tokenId": "type to query balance of\r"
        },
        "return": "Amount of objects of a given type ID\r"
      },
      "exists(uint256)": {
        "details": "Returns whether the specified token exists\r",
        "params": {
          "_tokenId": "uint256 ID of the token to query the existence of\r"
        },
        "return": "whether the token exists\r"
      },
      "getApproved(uint256)": {
        "details": "Gets the approved address for a token ID, or zero if no address set\r",
        "params": {
          "_tokenId": "uint256 ID of the token to query the approval of\r"
        },
        "return": "address currently approved for the given token ID\r"
      },
      "isApprovedForAll(address,address)": {
        "details": "Function that verifies whether _operator is an authorized operator of _tokenHolder.\r",
        "params": {
          "_operator": "The address of the operator to query status of\r",
          "_owner": "Address of the tokenHolder\r"
        },
        "return": "A uint256 specifying the amount of tokens still available for the spender.\r"
      },
      "ownerOf(uint256)": {
        "details": "Gets the owner of a given NFT\r",
        "params": {
          "_tokenId": "uint256 representing the unique token identifier\r"
        },
        "return": "address the owner of the token\r"
      },
      "setApprovalForAll(address,bool)": {
        "details": "Will set _operator operator status to true or false\r",
        "params": {
          "_approved": "_operator's new operator status (true or false)\r",
          "_operator": "Address to changes operator status.\r"
        }
      },
      "supportsInterface(bytes4)": {
        "details": "implement supportsInterface(bytes4) using a lookup table\r"
      },
      "tokenByIndex(uint256)": {
        "details": "Gets the token ID at a given index of all the tokens in this contract\r Reverts if the index is greater or equal to the total number of tokens\r",
        "params": {
          "_index": "uint256 representing the index to be accessed of the tokens list\r"
        },
        "return": "uint256 token ID at the given index of the tokens list\r"
      },
      "tokensOwned(address)": {
        "details": "Gets Iterate through the list of existing tokens and return the indexes\r       and balances of the tokens owner by the user\r",
        "params": {
          "_owner": "The adddress we are checking\r"
        },
        "return": "indexes The tokenIds\rbalances The balances of each token\r"
      },
      "totalSupply()": {
        "details": "Gets the total amount of tokens stored by the contract\r",
        "return": "uint256 representing the total amount of tokens\r"
      }
    }
  },
  "userdoc": {
    "methods": {
      "AlienCount()": {
        "notice": "#DEV Return Alien Count\r"
      },
      "CardGetterName(string)": {
        "notice": "#DEV Total possible combos for regular card = 10^25\r"
      }
    }
  }
}