{
  "contractName": "AlienCreation",
  "abi": [
    {
      "constant": true,
      "inputs": [
        {
          "name": "_address",
          "type": "address"
        },
        {
          "name": "_tokenId",
          "type": "uint256"
        }
      ],
      "name": "balanceOf",
      "outputs": [
        {
          "name": "",
          "type": "uint256"
        }
      ],
      "payable": false,
      "stateMutability": "view",
      "type": "function"
    },
    {
      "constant": true,
      "inputs": [
        {
          "name": "_interfaceId",
          "type": "bytes4"
        }
      ],
      "name": "supportsInterface",
      "outputs": [
        {
          "name": "",
          "type": "bool"
        }
      ],
      "payable": false,
      "stateMutability": "view",
      "type": "function"
    },
    {
      "constant": true,
      "inputs": [],
      "name": "name",
      "outputs": [
        {
          "name": "",
          "type": "string"
        }
      ],
      "payable": false,
      "stateMutability": "view",
      "type": "function"
    },
    {
      "constant": true,
      "inputs": [
        {
          "name": "_tokenId",
          "type": "uint256"
        }
      ],
      "name": "getApproved",
      "outputs": [
        {
          "name": "",
          "type": "address"
        }
      ],
      "payable": false,
      "stateMutability": "view",
      "type": "function"
    },
    {
      "constant": false,
      "inputs": [
        {
          "name": "_to",
          "type": "address"
        },
        {
          "name": "_tokenId",
          "type": "uint256"
        }
      ],
      "name": "approve",
      "outputs": [],
      "payable": false,
      "stateMutability": "nonpayable",
      "type": "function"
    },
    {
      "constant": true,
      "inputs": [],
      "name": "implementsERC721",
      "outputs": [
        {
          "name": "",
          "type": "bool"
        }
      ],
      "payable": false,
      "stateMutability": "pure",
      "type": "function"
    },
    {
      "constant": true,
      "inputs": [],
      "name": "totalSupply",
      "outputs": [
        {
          "name": "",
          "type": "uint256"
        }
      ],
      "payable": false,
      "stateMutability": "view",
      "type": "function"
    },
    {
      "constant": true,
      "inputs": [],
      "name": "InterfaceId_ERC165",
      "outputs": [
        {
          "name": "",
          "type": "bytes4"
        }
      ],
      "payable": false,
      "stateMutability": "view",
      "type": "function"
    },
    {
      "constant": true,
      "inputs": [
        {
          "name": "_owner",
          "type": "address"
        }
      ],
      "name": "tokensOwned",
      "outputs": [
        {
          "name": "indexes",
          "type": "uint256[]"
        },
        {
          "name": "balances",
          "type": "uint256[]"
        }
      ],
      "payable": false,
      "stateMutability": "view",
      "type": "function"
    },
    {
      "constant": false,
      "inputs": [
        {
          "name": "_from",
          "type": "address"
        },
        {
          "name": "_to",
          "type": "address"
        },
        {
          "name": "_tokenId",
          "type": "uint256"
        }
      ],
      "name": "transferFrom",
      "outputs": [],
      "payable": false,
      "stateMutability": "nonpayable",
      "type": "function"
    },
    {
      "constant": true,
      "inputs": [
        {
          "name": "_owner",
          "type": "address"
        },
        {
          "name": "_index",
          "type": "uint256"
        }
      ],
      "name": "tokenOfOwnerByIndex",
      "outputs": [
        {
          "name": "_tokenId",
          "type": "uint256"
        }
      ],
      "payable": false,
      "stateMutability": "view",
      "type": "function"
    },
    {
      "constant": true,
      "inputs": [
        {
          "name": "",
          "type": "uint256"
        }
      ],
      "name": "alien",
      "outputs": [
        {
          "name": "alienOwner",
          "type": "address"
        },
        {
          "name": "name",
          "type": "string"
        },
        {
          "name": "attack",
          "type": "uint256"
        },
        {
          "name": "defence",
          "type": "uint256"
        }
      ],
      "payable": false,
      "stateMutability": "view",
      "type": "function"
    },
    {
      "constant": false,
      "inputs": [
        {
          "name": "_from",
          "type": "address"
        },
        {
          "name": "_to",
          "type": "address"
        },
        {
          "name": "_tokenId",
          "type": "uint256"
        }
      ],
      "name": "safeTransferFrom",
      "outputs": [],
      "payable": false,
      "stateMutability": "nonpayable",
      "type": "function"
    },
    {
      "constant": true,
      "inputs": [
        {
          "name": "_tokenId",
          "type": "uint256"
        }
      ],
      "name": "exists",
      "outputs": [
        {
          "name": "",
          "type": "bool"
        }
      ],
      "payable": false,
      "stateMutability": "view",
      "type": "function"
    },
    {
      "constant": true,
      "inputs": [
        {
          "name": "_index",
          "type": "uint256"
        }
      ],
      "name": "tokenByIndex",
      "outputs": [
        {
          "name": "",
          "type": "uint256"
        }
      ],
      "payable": false,
      "stateMutability": "view",
      "type": "function"
    },
    {
      "constant": true,
      "inputs": [
        {
          "name": "_tokenId",
          "type": "uint256"
        }
      ],
      "name": "ownerOf",
      "outputs": [
        {
          "name": "",
          "type": "address"
        }
      ],
      "payable": false,
      "stateMutability": "view",
      "type": "function"
    },
    {
      "constant": true,
      "inputs": [
        {
          "name": "_owner",
          "type": "address"
        }
      ],
      "name": "balanceOf",
      "outputs": [
        {
          "name": "balance",
          "type": "uint256"
        }
      ],
      "payable": false,
      "stateMutability": "view",
      "type": "function"
    },
    {
      "constant": true,
      "inputs": [],
      "name": "symbol",
      "outputs": [
        {
          "name": "",
          "type": "string"
        }
      ],
      "payable": false,
      "stateMutability": "view",
      "type": "function"
    },
    {
      "constant": false,
      "inputs": [
        {
          "name": "_operator",
          "type": "address"
        },
        {
          "name": "_approved",
          "type": "bool"
        }
      ],
      "name": "setApprovalForAll",
      "outputs": [],
      "payable": false,
      "stateMutability": "nonpayable",
      "type": "function"
    },
    {
      "constant": false,
      "inputs": [
        {
          "name": "_from",
          "type": "address"
        },
        {
          "name": "_to",
          "type": "address"
        },
        {
          "name": "_tokenId",
          "type": "uint256"
        },
        {
          "name": "_data",
          "type": "bytes"
        }
      ],
      "name": "safeTransferFrom",
      "outputs": [],
      "payable": false,
      "stateMutability": "nonpayable",
      "type": "function"
    },
    {
      "constant": true,
      "inputs": [
        {
          "name": "_tokenId",
          "type": "uint256"
        }
      ],
      "name": "tokenURI",
      "outputs": [
        {
          "name": "tokenUri",
          "type": "string"
        }
      ],
      "payable": false,
      "stateMutability": "view",
      "type": "function"
    },
    {
      "constant": true,
      "inputs": [
        {
          "name": "_owner",
          "type": "address"
        },
        {
          "name": "_operator",
          "type": "address"
        }
      ],
      "name": "isApprovedForAll",
      "outputs": [
        {
          "name": "isOperator",
          "type": "bool"
        }
      ],
      "payable": false,
      "stateMutability": "view",
      "type": "function"
    },
    {
      "anonymous": false,
      "inputs": [
        {
          "indexed": false,
          "name": "alienOwner",
          "type": "address"
        },
        {
          "indexed": false,
          "name": "alienId",
          "type": "uint256"
        },
        {
          "indexed": false,
          "name": "name",
          "type": "string"
        },
        {
          "indexed": false,
          "name": "attack",
          "type": "uint256"
        },
        {
          "indexed": false,
          "name": "defence",
          "type": "uint256"
        }
      ],
      "name": "AlienStarter",
      "type": "event"
    },
    {
      "anonymous": false,
      "inputs": [
        {
          "indexed": true,
          "name": "_from",
          "type": "address"
        },
        {
          "indexed": true,
          "name": "_to",
          "type": "address"
        },
        {
          "indexed": true,
          "name": "_tokenId",
          "type": "uint256"
        }
      ],
      "name": "Transfer",
      "type": "event"
    },
    {
      "anonymous": false,
      "inputs": [
        {
          "indexed": true,
          "name": "_owner",
          "type": "address"
        },
        {
          "indexed": true,
          "name": "_approved",
          "type": "address"
        },
        {
          "indexed": true,
          "name": "_tokenId",
          "type": "uint256"
        }
      ],
      "name": "Approval",
      "type": "event"
    },
    {
      "anonymous": false,
      "inputs": [
        {
          "indexed": true,
          "name": "_owner",
          "type": "address"
        },
        {
          "indexed": true,
          "name": "_operator",
          "type": "address"
        },
        {
          "indexed": false,
          "name": "_approved",
          "type": "bool"
        }
      ],
      "name": "ApprovalForAll",
      "type": "event"
    },
    {
      "constant": true,
      "inputs": [
        {
          "name": "CardName",
          "type": "string"
        }
      ],
      "name": "CardGetterName",
      "outputs": [
        {
          "name": "",
          "type": "string"
        }
      ],
      "payable": false,
      "stateMutability": "pure",
      "type": "function"
    },
    {
      "constant": true,
      "inputs": [
        {
          "name": "CardSymbol",
          "type": "string"
        }
      ],
      "name": "CardGetterSymbol",
      "outputs": [
        {
          "name": "",
          "type": "string"
        }
      ],
      "payable": false,
      "stateMutability": "pure",
      "type": "function"
    },
    {
      "constant": false,
      "inputs": [
        {
          "name": "_alienOwner",
          "type": "address"
        },
        {
          "name": "_name",
          "type": "string"
        },
        {
          "name": "_attack",
          "type": "uint256"
        },
        {
          "name": "_defence",
          "type": "uint256"
        }
      ],
      "name": "CreateAlien",
      "outputs": [],
      "payable": false,
      "stateMutability": "nonpayable",
      "type": "function"
    },
    {
      "constant": false,
      "inputs": [
        {
          "name": "_alienId",
          "type": "uint256"
        }
      ],
      "name": "AddWeaponry",
      "outputs": [],
      "payable": false,
      "stateMutability": "nonpayable",
      "type": "function"
    }
  ],
  "bytecode": "0x6080604052600a60075560196008556008546007540a600955620000556301ffc9a77c01000000000000000000000000000000000000000000000000000000000262000098640100000000026401000000009004565b62000092635b5e139f7c01000000000000000000000000000000000000000000000000000000000262000098640100000000026401000000009004565b62000156565b63ffffffff7c010000000000000000000000000000000000000000000000000000000002817bffffffffffffffffffffffffffffffffffffffffffffffffffffffff191614151515620000ea57600080fd5b6001600080837bffffffffffffffffffffffffffffffffffffffffffffffffffffffff19167bffffffffffffffffffffffffffffffffffffffffffffffffffffffff1916815260200190815260200160002060006101000a81548160ff02191690831515021790555050565b61297e80620001666000396000f300608060405260043610610153576000357c0100000000000000000000000000000000000000000000000000000000900463ffffffff168062fdd58e1461015857806301ffc9a7146101b957806306fdde031461021d578063081812fc146102ad578063095ea7b31461031a5780631051db3414610367578063176355ec1461039657806318160ddd1461043357806319fa8f501461045e57806321cda790146104c757806323b872dd146105a75780632f745c591461061457806334b143741461067557806335697d8c1461075757806342842e0e1461083e5780634f558e79146108ab5780634f6ccce7146108f05780636352211e1461093157806370a082311461099e57806395d89b41146109f5578063a22cb46514610a85578063b88d4fde14610ad4578063b9b9b83c14610b87578063bb99685e14610bb4578063c87b56dd14610c96578063e985e9c514610d3c575b600080fd5b34801561016457600080fd5b506101a3600480360381019080803573ffffffffffffffffffffffffffffffffffffffff16906020019092919080359060200190929190505050610db7565b6040518082815260200191505060405180910390f35b3480156101c557600080fd5b5061020360048036038101908080357bffffffffffffffffffffffffffffffffffffffffffffffffffffffff19169060200190929190505050610e36565b604051808215151515815260200191505060405180910390f35b34801561022957600080fd5b50610232610e9d565b6040518080602001828103825283818151815260200191508051906020019080838360005b83811015610272578082015181840152602081019050610257565b50505050905090810190601f16801561029f5780820380516001836020036101000a031916815260200191505b509250505060405180910390f35b3480156102b957600080fd5b506102d860048036038101908080359060200190929190505050610eda565b604051808273ffffffffffffffffffffffffffffffffffffffff1673ffffffffffffffffffffffffffffffffffffffff16815260200191505060405180910390f35b34801561032657600080fd5b50610365600480360381019080803573ffffffffffffffffffffffffffffffffffffffff16906020019092919080359060200190929190505050610f17565b005b34801561037357600080fd5b5061037c61105c565b604051808215151515815260200191505060405180910390f35b3480156103a257600080fd5b50610431600480360381019080803573ffffffffffffffffffffffffffffffffffffffff169060200190929190803590602001908201803590602001908080601f01602080910402602001604051908101604052809392919081815260200183838082843782019150505050505091929192908035906020019092919080359060200190929190505050611065565b005b34801561043f57600080fd5b506104486110c5565b6040518082815260200191505060405180910390f35b34801561046a57600080fd5b506104736110d2565b60405180827bffffffffffffffffffffffffffffffffffffffffffffffffffffffff19167bffffffffffffffffffffffffffffffffffffffffffffffffffffffff1916815260200191505060405180910390f35b3480156104d357600080fd5b50610508600480360381019080803573ffffffffffffffffffffffffffffffffffffffff1690602001909291905050506110f9565b604051808060200180602001838103835285818151815260200191508051906020019060200280838360005b8381101561054f578082015181840152602081019050610534565b50505050905001838103825284818151815260200191508051906020019060200280838360005b83811015610591578082015181840152602081019050610576565b5050505090500194505050505060405180910390f35b3480156105b357600080fd5b50610612600480360381019080803573ffffffffffffffffffffffffffffffffffffffff169060200190929190803573ffffffffffffffffffffffffffffffffffffffff16906020019092919080359060200190929190505050611304565b005b34801561062057600080fd5b5061065f600480360381019080803573ffffffffffffffffffffffffffffffffffffffff16906020019092919080359060200190929190505050611314565b6040518082815260200191505060405180910390f35b34801561068157600080fd5b506106dc600480360381019080803590602001908201803590602001908080601f016020809104026020016040519081016040528093929190818152602001838380828437820191505050505050919291929050505061131f565b6040518080602001828103825283818151815260200191508051906020019080838360005b8381101561071c578082015181840152602081019050610701565b50505050905090810190601f1680156107495780820380516001836020036101000a031916815260200191505b509250505060405180910390f35b34801561076357600080fd5b5061078260048036038101908080359060200190929190505050611361565b604051808573ffffffffffffffffffffffffffffffffffffffff1673ffffffffffffffffffffffffffffffffffffffff16815260200180602001848152602001838152602001828103825285818151815260200191508051906020019080838360005b838110156108005780820151818401526020810190506107e5565b50505050905090810190601f16801561082d5780820380516001836020036101000a031916815260200191505b509550505050505060405180910390f35b34801561084a57600080fd5b506108a9600480360381019080803573ffffffffffffffffffffffffffffffffffffffff169060200190929190803573ffffffffffffffffffffffffffffffffffffffff16906020019092919080359060200190929190505050611458565b005b3480156108b757600080fd5b506108d660048036038101908080359060200190929190505050611479565b604051808215151515815260200191505060405180910390f35b3480156108fc57600080fd5b5061091b60048036038101908080359060200190929190505050611499565b6040518082815260200191505060405180910390f35b34801561093d57600080fd5b5061095c600480360381019080803590602001909291905050506114d1565b604051808273ffffffffffffffffffffffffffffffffffffffff1673ffffffffffffffffffffffffffffffffffffffff16815260200191505060405180910390f35b3480156109aa57600080fd5b506109df600480360381019080803573ffffffffffffffffffffffffffffffffffffffff1690602001909291905050506115e5565b6040518082815260200191505060405180910390f35b348015610a0157600080fd5b50610a0a6115ff565b6040518080602001828103825283818151815260200191508051906020019080838360005b83811015610a4a578082015181840152602081019050610a2f565b50505050905090810190601f168015610a775780820380516001836020036101000a031916815260200191505b509250505060405180910390f35b348015610a9157600080fd5b50610ad2600480360381019080803573ffffffffffffffffffffffffffffffffffffffff16906020019092919080351515906020019092919050505061163c565b005b348015610ae057600080fd5b50610b85600480360381019080803573ffffffffffffffffffffffffffffffffffffffff169060200190929190803573ffffffffffffffffffffffffffffffffffffffff16906020019092919080359060200190929190803590602001908201803590602001908080601f016020809104026020016040519081016040528093929190818152602001838380828437820191505050505050919291929050505061173d565b005b348015610b9357600080fd5b50610bb2600480360381019080803590602001909291905050506117f4565b005b348015610bc057600080fd5b50610c1b600480360381019080803590602001908201803590602001908080601f0160208091040260200160405190810160405280939291908181526020018383808284378201915050505050509192919290505050611899565b6040518080602001828103825283818151815260200191508051906020019080838360005b83811015610c5b578082015181840152602081019050610c40565b50505050905090810190601f168015610c885780820380516001836020036101000a031916815260200191505b509250505060405180910390f35b348015610ca257600080fd5b50610cc1600480360381019080803590602001909291905050506118db565b6040518080602001828103825283818151815260200191508051906020019080838360005b83811015610d01578082015181840152602081019050610ce6565b50505050905090810190601f168015610d2e5780820380516001836020036101000a031916815260200191505b509250505060405180910390f35b348015610d4857600080fd5b50610d9d600480360381019080803573ffffffffffffffffffffffffffffffffffffffff169060200190929190803573ffffffffffffffffffffffffffffffffffffffff169060200190929190505050611cb7565b604051808215151515815260200191505060405180910390f35b6000806000610dc584611d4b565b91509150610e2c81600260008873ffffffffffffffffffffffffffffffffffffffff1673ffffffffffffffffffffffffffffffffffffffff168152602001908152602001600020600085815260200190815260200160002054611d8890919063ffffffff16565b9250505092915050565b6000806000837bffffffffffffffffffffffffffffffffffffffffffffffffffffffff19167bffffffffffffffffffffffffffffffffffffffffffffffffffffffff1916815260200190815260200160002060009054906101000a900460ff169050919050565b60606040805190810160405280600f81526020017f45524337323158546f6b656e4e46540000000000000000000000000000000000815250905090565b60006005600083815260200190815260200160002060009054906101000a900473ffffffffffffffffffffffffffffffffffffffff169050919050565b6000610f22826114d1565b90508073ffffffffffffffffffffffffffffffffffffffff168373ffffffffffffffffffffffffffffffffffffffff1614151515610f5f57600080fd5b8073ffffffffffffffffffffffffffffffffffffffff163373ffffffffffffffffffffffffffffffffffffffff161480610f9f5750610f9e8133611cb7565b5b1515610faa57600080fd5b826005600084815260200190815260200160002060006101000a81548173ffffffffffffffffffffffffffffffffffffffff021916908373ffffffffffffffffffffffffffffffffffffffff160217905550818373ffffffffffffffffffffffffffffffffffffffff168273ffffffffffffffffffffffffffffffffffffffff167f8c5be1e5ebec7d5bd14f71427d1e84f3dd0314c0f7b2291e5b200ac8c7c3b92560405160405180910390a4505050565b60006001905090565b6000600c60003373ffffffffffffffffffffffffffffffffffffffff1673ffffffffffffffffffffffffffffffffffffffff168152602001908152602001600020541415156110b357600080fd5b6110bf84848484611dbc565b50505050565b6000600180549050905090565b6301ffc9a77c01000000000000000000000000000000000000000000000000000000000281565b606080600060608060008060006060806111116110c5565b9750876040519080825280602002602001820160405280156111425781602001602082028038833980820191505090505b509650876040519080825280602002602001820160405280156111745781602001602082028038833980820191505090505b509550600093505b8784101561120b5760018481548110151561119357fe5b9060005260206000200154925060006111ac8c85610db7565b11156111fe576111bc8b84610db7565b86868151811015156111ca57fe5b90602001906020020181815250508287868151811015156111e757fe5b906020019060200201818152505084806001019550505b838060010194505061117c565b8460405190808252806020026020018201604052801561123a5781602001602082028038833980820191505090505b5091508460405190808252806020026020018201604052801561126c5781602001602082028038833980820191505090505b509050600093505b848410156112f157858481518110151561128a57fe5b9060200190602002015182858151811015156112a257fe5b906020019060200201818152505086848151811015156112be57fe5b9060200190602002015181858151811015156112d657fe5b90602001906020020181815250508380600101945050611274565b8082995099505050505050505050915091565b61130f838383612109565b505050565b600080905092915050565b60606040805190810160405280600581526020017f414c49454e0000000000000000000000000000000000000000000000000000008152509150819050919050565b600a8181548110151561137057fe5b90600052602060002090600402016000915090508060000160009054906101000a900473ffffffffffffffffffffffffffffffffffffffff1690806001018054600181600116156101000203166002900480601f0160208091040260200160405190810160405280929190818152602001828054600181600116156101000203166002900480156114425780601f1061141757610100808354040283529160200191611442565b820191906000526020600020905b81548152906001019060200180831161142557829003601f168201915b5050505050908060020154908060030154905084565b611474838383602060405190810160405280600081525061173d565b505050565b600080600660008481526020019081526020016000205414159050919050565b60006114a36110c5565b821015156114b057600080fd5b6001828154811015156114bf57fe5b90600052602060002001549050919050565b60008073ffffffffffffffffffffffffffffffffffffffff166003600084815260200190815260200160002060009054906101000a900473ffffffffffffffffffffffffffffffffffffffff1673ffffffffffffffffffffffffffffffffffffffff16141515156115aa576040517f08c379a00000000000000000000000000000000000000000000000000000000081526004018080602001828103825260138152602001807f436f696e20646f6573206e6f742065786973740000000000000000000000000081525060200191505060405180910390fd5b6003600083815260200190815260200160002060009054906101000a900473ffffffffffffffffffffffffffffffffffffffff169050919050565b600060606115f2836110f9565b9150508051915050919050565b60606040805190810160405280600781526020017f4552433732315800000000000000000000000000000000000000000000000000815250905090565b80600460003373ffffffffffffffffffffffffffffffffffffffff1673ffffffffffffffffffffffffffffffffffffffff16815260200190815260200160002060008473ffffffffffffffffffffffffffffffffffffffff1673ffffffffffffffffffffffffffffffffffffffff16815260200190815260200160002060006101000a81548160ff0219169083151502179055508173ffffffffffffffffffffffffffffffffffffffff163373ffffffffffffffffffffffffffffffffffffffff167f17307eab39ab6107e8899845ad3d59bd9653f200f220920489ca2b5937696c3183604051808215151515815260200191505060405180910390a35050565b611748848484612109565b611754848484846122bc565b15156117ee576040517f08c379a00000000000000000000000000000000000000000000000000000000081526004018080602001828103825260328152602001807f53656e7420746f206120636f6e7472616374207768696368206973206e6f742081526020017f616e20455243373231207265636569766572000000000000000000000000000081525060400191505060405180910390fd5b50505050565b803373ffffffffffffffffffffffffffffffffffffffff16600b600083815260200190815260200160002060000160009054906101000a900473ffffffffffffffffffffffffffffffffffffffff1673ffffffffffffffffffffffffffffffffffffffff1614151561186557600080fd5b600a8281548110151561187457fe5b9060005260206000209060040201600201600081548092919060010191905055505050565b60606040805190810160405280600d81526020017f526567756c617220416c69656e000000000000000000000000000000000000008152509150819050919050565b6060806118e783611479565b151561195b576040517f08c379a00000000000000000000000000000000000000000000000000000000081526004018080602001828103825260138152602001807f546f6b656e20646f65736e27742065786973740000000000000000000000000081525060200191505060405180910390fd5b606060405190810160405280603181526020017f68747470733a2f2f72696e6b6562792e6c6f6f6d2e67616d65732f657263373281526020017f312f7a6d622f3030303030302e6a736f6e0000000000000000000000000000008152509150819050600a620186a0848115156119cd57fe5b048115156119d757fe5b066030017f010000000000000000000000000000000000000000000000000000000000000002816026815181101515611a0c57fe5b9060200101907effffffffffffffffffffffffffffffffffffffffffffffffffffffffffffff1916908160001a905350600a61271084811515611a4b57fe5b04811515611a5557fe5b066030017f010000000000000000000000000000000000000000000000000000000000000002816027815181101515611a8a57fe5b9060200101907effffffffffffffffffffffffffffffffffffffffffffffffffffffffffffff1916908160001a905350600a6103e884811515611ac957fe5b04811515611ad357fe5b066030017f010000000000000000000000000000000000000000000000000000000000000002816028815181101515611b0857fe5b9060200101907effffffffffffffffffffffffffffffffffffffffffffffffffffffffffffff1916908160001a905350600a606484811515611b4657fe5b04811515611b5057fe5b066030017f010000000000000000000000000000000000000000000000000000000000000002816029815181101515611b8557fe5b9060200101907effffffffffffffffffffffffffffffffffffffffffffffffffffffffffffff1916908160001a905350600a8084811515611bc257fe5b04811515611bcc57fe5b066030017f01000000000000000000000000000000000000000000000000000000000000000281602a815181101515611c0157fe5b9060200101907effffffffffffffffffffffffffffffffffffffffffffffffffffffffffffff1916908160001a905350600a600184811515611c3f57fe5b04811515611c4957fe5b066030017f01000000000000000000000000000000000000000000000000000000000000000281602b815181101515611c7e57fe5b9060200101907effffffffffffffffffffffffffffffffffffffffffffffffffffffffffffff1916908160001a90535081915050919050565b6000600460008473ffffffffffffffffffffffffffffffffffffffff1673ffffffffffffffffffffffffffffffffffffffff16815260200190815260200160002060008373ffffffffffffffffffffffffffffffffffffffff1673ffffffffffffffffffffffffffffffffffffffff16815260200190815260200160002060009054906101000a900460ff16905092915050565b60008061010060108402811515611d5e57fe5b0491506010610100811515611d6f57fe5b0483811515611d7a57fe5b069050818191509150915091565b60008060006001601060019060020a02039150600184016010026101000390508181869060020a9004169250505092915050565b60006001600a6080604051908101604052808873ffffffffffffffffffffffffffffffffffffffff1681526020018781526020016000815260200160008152509080600181540180825580915050906001820390600052602060002090600402016000909192909190915060008201518160000160006101000a81548173ffffffffffffffffffffffffffffffffffffffff021916908373ffffffffffffffffffffffffffffffffffffffff1602179055506020820151816001019080519060200190611e8a9291906128ad565b506040820151816002015560608201518160030155505003905033600a82815481101515611eb457fe5b906000526020600020906004020160000160006101000a81548173ffffffffffffffffffffffffffffffffffffffff021916908373ffffffffffffffffffffffffffffffffffffffff1602179055506080604051908101604052808673ffffffffffffffffffffffffffffffffffffffff168152602001858152602001600081526020016000815250600b600083815260200190815260200160002060008201518160000160006101000a81548173ffffffffffffffffffffffffffffffffffffffff021916908373ffffffffffffffffffffffffffffffffffffffff1602179055506020820151816001019080519060200190611fb39291906128ad565b506040820151816002015560608201518160030155905050600c60003373ffffffffffffffffffffffffffffffffffffffff1673ffffffffffffffffffffffffffffffffffffffff168152602001908152602001600020600081548092919060010191905055507f707b03f165a4c536792c0905ba87ef1d59a678a5c9dfb08a1515574d64b5084f8582868686604051808673ffffffffffffffffffffffffffffffffffffffff1673ffffffffffffffffffffffffffffffffffffffff16815260200185815260200180602001848152602001838152602001828103825285818151815260200191508051906020019080838360005b838110156120c45780820151818401526020810190506120a9565b50505050905090810190601f1680156120f15780820380516001836020036101000a031916815260200191505b50965050505050505060405180910390a15050505050565b6001600660008381526020019081526020016000205414151561212b57600080fd5b61213e83612138836114d1565b836124de565b151561214957600080fd5b600073ffffffffffffffffffffffffffffffffffffffff168273ffffffffffffffffffffffffffffffffffffffff16141515156121ee576040517f08c379a00000000000000000000000000000000000000000000000000000000081526004018080602001828103825260128152602001807f496e76616c696420746f2061646472657373000000000000000000000000000081525060200191505060405180910390fd5b6121fc838260006002612567565b61220a828260016002612567565b816003600083815260200190815260200160002060006101000a81548173ffffffffffffffffffffffffffffffffffffffff021916908373ffffffffffffffffffffffffffffffffffffffff160217905550808273ffffffffffffffffffffffffffffffffffffffff168473ffffffffffffffffffffffffffffffffffffffff167fddf252ad1be2c89b69c2b068fc378daa952ba7f163c4a11628f55a4df523b3ef60405160405180910390a4505050565b6000806122de8573ffffffffffffffffffffffffffffffffffffffff1661263a565b15156122ed57600191506124d5565b8473ffffffffffffffffffffffffffffffffffffffff1663150b7a02338887876040518563ffffffff167c0100000000000000000000000000000000000000000000000000000000028152600401808573ffffffffffffffffffffffffffffffffffffffff1673ffffffffffffffffffffffffffffffffffffffff1681526020018473ffffffffffffffffffffffffffffffffffffffff1673ffffffffffffffffffffffffffffffffffffffff16815260200183815260200180602001828103825283818151815260200191508051906020019080838360005b838110156123e25780820151818401526020810190506123c7565b50505050905090810190601f16801561240f5780820380516001836020036101000a031916815260200191505b5095505050505050602060405180830381600087803b15801561243157600080fd5b505af1158015612445573d6000803e3d6000fd5b505050506040513d602081101561245b57600080fd5b8101908080519060200190929190505050905063150b7a027c0100000000000000000000000000000000000000000000000000000000027bffffffffffffffffffffffffffffffffffffffffffffffffffffffff1916817bffffffffffffffffffffffffffffffffffffffffffffffffffffffff19161491505b50949350505050565b60008273ffffffffffffffffffffffffffffffffffffffff168473ffffffffffffffffffffffffffffffffffffffff16148061254d57508373ffffffffffffffffffffffffffffffffffffffff1661253583610eda565b73ffffffffffffffffffffffffffffffffffffffff16145b8061255e575061255d8385611cb7565b5b90509392505050565b60008061257385611d4b565b915091506125de818585600260008b73ffffffffffffffffffffffffffffffffffffffff1673ffffffffffffffffffffffffffffffffffffffff16815260200190815260200160002060008781526020019081526020016000205461264d909392919063ffffffff16565b600260008873ffffffffffffffffffffffffffffffffffffffff1673ffffffffffffffffffffffffffffffffffffffff168152602001908152602001600020600084815260200190815260200160002081905550505050505050565b600080823b905060008111915050919050565b6000806000600281111561265d57fe5b83600281111561266957fe5b141561269f576126798686611d88565b90506126988686612693878561279a90919063ffffffff16565b6127b6565b915061278e565b600160028111156126ac57fe5b8360028111156126b857fe5b14156126ee576126c88686611d88565b90506126e786866126e2878561289490919063ffffffff16565b6127b6565b915061278d565b6002808111156126fa57fe5b83600281111561270657fe5b141561271e576127178686866127b6565b915061278c565b6040517f08c379a00000000000000000000000000000000000000000000000000000000081526004018080602001828103825260118152602001807f496e76616c6964206f7065726174696f6e00000000000000000000000000000081525060200191505060405180910390fd5b5b5b81915050949350505050565b600081830190508281101515156127ad57fe5b80905092915050565b6000806000601060020a8410151561285c576040517f08c379a00000000000000000000000000000000000000000000000000000000081526004018080602001828103825260238152602001807f416d6f756e7420746f20777269746520696e2062696e20697320746f6f206c6181526020017f726765000000000000000000000000000000000000000000000000000000000081525060400191505060405180910390fd5b6001601060019060020a020391506001850160100261010003905080849060020a0281839060020a0219871617925050509392505050565b60008282111515156128a257fe5b818303905092915050565b828054600181600116156101000203166002900490600052602060002090601f016020900481019282601f106128ee57805160ff191683800117855561291c565b8280016001018555821561291c579182015b8281111561291b578251825591602001919060010190612900565b5b509050612929919061292d565b5090565b61294f91905b8082111561294b576000816000905550600101612933565b5090565b905600a165627a7a72305820fb2b35aec53ccc4d4d838d121bcc1f04b81313a6e05319f2450523fac0aef4dd0029",
  "source": "pragma solidity ^0.4.24;\r\n\r\nimport \"../erc721x/contracts/Interfaces/ERC721X.sol\";\r\nimport \"../erc721x/contracts/Interfaces/ERC721XReceiver.sol\";\r\nimport \"../erc721x/contracts/Core/ERC721X/ERC721XTokenNFT.sol\";\r\nimport \"../erc721x/contracts/Libraries/ObjectsLib.sol\";\r\nimport \"../openzeppelin-solidity/contracts/AddressUtils.sol\";\r\n\r\ncontract AlienCreation is ERC721XTokenNFT {\r\n\r\n\r\n  uint AlienDna = 10;\r\n  uint AlienTypes = 25;\r\n  uint AlienCombos = AlienDna ** AlienTypes; ///#DEV Total possible combos for regular card = 10^25\r\n\r\n\r\n     function CardGetterName(string CardName) public pure returns(string) {\r\n       CardName = \"Regular Alien\";  ///#DEV Name of card for Loom network marketplace and plasma\r\n       return CardName;\r\n     }\r\n\r\n     function CardGetterSymbol(string CardSymbol) public pure returns(string) {\r\n       CardSymbol = \"ALIEN\";     ///#DEV Symbol of card for Loom network marketplace and plasma\r\n       return CardSymbol;\r\n     }\r\n\r\n    event AlienStarter(address alienOwner, uint alienId, string name, uint attack, uint defence);  ///#DEV Event for frontend JavaScript\r\n\r\n    struct Alien { //#DEV Variable properties for Alien card type\r\n        address alienOwner;\r\n        string name;\r\n        uint attack;\r\n        uint defence;\r\n    }\r\n\r\n    Alien[] public alien;\r\n\r\n    //mapping(uint => address) AlienAddress;  ///#DEV Mapping for Alien token ID to owner\r\n    mapping(uint => Alien) AlienOwner;\r\n    mapping(address => uint) TotalCount;   ///#DEV Total alien card count to addresss\r\n\r\n     modifier StarterAirdrop() {\r\n       require(TotalCount[msg.sender] == 0);  /// #DEV Check that alien type card count is 0\r\n       _;\r\n    }\r\n\r\n    modifier OnlyAlienOwner(uint _alienId) {\r\n        require(AlienOwner[_alienId].alienOwner == msg.sender);  ///#DEV Require to check that person calling function is owner of the card\r\n        _;\r\n    }\r\n\r\n    ///#DEV Initial airdrop of game token on starting the game\r\n    function AirdropStartingAlien(address _alienOwner, string memory _name, uint _attack, uint _defence) private {\r\n        uint id = alien.push(Alien(_alienOwner, _name, 0, 0)) - 1;\r\n        alien[id].alienOwner = msg.sender;\r\n        AlienOwner[id] = Alien(_alienOwner, _name, 0, 0); ///#DEV Assigns id to person calling function - makes them owner\r\n        TotalCount[msg.sender]++; ///#DEV Alien count +1\r\n        emit AlienStarter(_alienOwner, id, _name, _attack, _defence); ///Trigger event\r\n    }\r\n\r\n    function GenerateRandomAlien(string memory _namestr) private view returns (uint) {\r\n        uint RandomName = uint(keccak256(abi.encodePacked(_namestr))); ///Pseudo random 256bit string generated from keccak hash function\r\n        return RandomName % AlienCombos; ///#DEV Return any remainder (random number) from 10^25 (AlienCombos). RandomName possible combos = 2^256\r\n    }\r\n\r\n    function CreateAlien(address _alienOwner, string memory _name, uint _attack, uint _defence) public StarterAirdrop {\r\n       //uint AlienType = GenerateRandomAlien(_name); ///#DEV Call above function with name parameter to produce random no.\r\n       AirdropStartingAlien(_alienOwner, _name, _attack, _defence);\r\n    }\r\n\r\n    function AddWeaponry(uint _alienId) public OnlyAlienOwner(_alienId) {\r\n        alien[_alienId].attack++; ///#DEV Add +1 attack point to token that person chooses to call function with\r\n    }\r\n\r\n    ///#DEV 50/50 chance of receiving weapon add on\r\n    function RandGen(string memory _randomweaponstr) private pure returns (uint) {\r\n        uint RandomNum = uint(keccak256(abi.encodePacked(_randomweaponstr))) % 100; ///#DEV Random no. (1-100) probability of getting weapon bonus on initial airdrop\r\n        return RandomNum;\r\n    }\r\n\r\n    //function WeaponProb(uint _tokenId) private TokenOwner(_tokenId) {\r\n        //require(RandGen()); ///#DEV Must run RandGen\r\n        //AddWeaponry(_tokenId);\r\n    //}\r\n}\r\n\r\n/*contract PlanetCreation is AlienCreation {\r\n\r\n  event CreatePlanetEvents(uint planetId, uint ecosystemType);\r\n\r\n  struct Planet {\r\n    uint planetId;\r\n    uint ecosystemType;\r\n  }\r\n\r\n  Planet[] planet;\r\n\r\nmapping(uint => uint) public TokensToPlanet;\r\nmapping(uint => address) public PlanetOwnerAddress;\r\n\r\n  modifier PlanetCreateCheck(uint _planetId) {\r\n    require(TotalCount[msg.sender] >= 1);\r\n    require(PlanetOwnerAddress[_planetId] == 0);\r\n    _;\r\n  }\r\n\r\n  modifier PlanetOwnerCheck(uint _planetId) {\r\n    require(PlanetOwnerAddress[_planetId] == msg.sender);\r\n    _;\r\n  }\r\n\r\n  function CreatePlanet(uint _planetId, uint _ecosystemType) internal PlanetCreateCheck(_planetId) {\r\n    uint id = planet.push(Planet(_planetId, _ecosystemType));\r\n    PlanetOwnerAddress[_planetId] = msg.sender;\r\n    emit CreatePlanetEvents(id, _ecosystemType);\r\n  }\r\n\r\n function AssignPlanet(address _sender, uint _planetId) internal PlanetOwnerCheck(_planetId) {\r\n require(_sender == msg.sender);\r\n\r\n //uint[] TokensOwned storage  = tokensOwned(_sender);\r\n\r\n for(uint i=0;i<AddressTokens.length;i++) {\r\n   TokensToPlanet[AddressTokens[i]] = _planetId;\r\n }\r\n\r\n }\r\n\r\n}*/\r\n",
  "sourcePath": "C:\\Shared\\Omni Battle\\omnibattledev\\contracts\\AlienSpawner.sol",
  "compiler": {
    "name": "solc",
    "version": "0.4.24+commit.e67f0147.Emscripten.clang"
  },
  "schemaVersion": "3.0.0",
  "updatedAt": "2018-12-29T01:51:29.665Z",
  "devdoc": {
    "methods": {
      "approve(address,uint256)": {
        "details": "Approves another address to transfer the given token ID\r The zero address indicates there is no approved address.\r There can only be one approved address per token at a given time.\r Can only be called by the token owner or an approved operator.\r",
        "params": {
          "_to": "address to be approved for the given token ID\r",
          "_tokenId": "uint256 ID of the token to be approved\r"
        }
      },
      "balanceOf(address)": {
        "details": "Gets the number of tokens owned by the address we are checking\r",
        "params": {
          "_owner": "The adddress we are checking\r"
        },
        "return": "balance The unique amount of tokens owned\r"
      },
      "balanceOf(address,uint256)": {
        "details": "return the _tokenId type' balance of _address\r",
        "params": {
          "_address": "Address to query balance of\r",
          "_tokenId": "type to query balance of\r"
        },
        "return": "Amount of objects of a given type ID\r"
      },
      "exists(uint256)": {
        "details": "Returns whether the specified token exists\r",
        "params": {
          "_tokenId": "uint256 ID of the token to query the existence of\r"
        },
        "return": "whether the token exists\r"
      },
      "getApproved(uint256)": {
        "details": "Gets the approved address for a token ID, or zero if no address set\r",
        "params": {
          "_tokenId": "uint256 ID of the token to query the approval of\r"
        },
        "return": "address currently approved for the given token ID\r"
      },
      "isApprovedForAll(address,address)": {
        "details": "Function that verifies whether _operator is an authorized operator of _tokenHolder.\r",
        "params": {
          "_operator": "The address of the operator to query status of\r",
          "_owner": "Address of the tokenHolder\r"
        },
        "return": "A uint256 specifying the amount of tokens still available for the spender.\r"
      },
      "ownerOf(uint256)": {
        "details": "Gets the owner of a given NFT\r",
        "params": {
          "_tokenId": "uint256 representing the unique token identifier\r"
        },
        "return": "address the owner of the token\r"
      },
      "setApprovalForAll(address,bool)": {
        "details": "Will set _operator operator status to true or false\r",
        "params": {
          "_approved": "_operator's new operator status (true or false)\r",
          "_operator": "Address to changes operator status.\r"
        }
      },
      "supportsInterface(bytes4)": {
        "details": "implement supportsInterface(bytes4) using a lookup table\r"
      },
      "tokenByIndex(uint256)": {
        "details": "Gets the token ID at a given index of all the tokens in this contract\r Reverts if the index is greater or equal to the total number of tokens\r",
        "params": {
          "_index": "uint256 representing the index to be accessed of the tokens list\r"
        },
        "return": "uint256 token ID at the given index of the tokens list\r"
      },
      "tokensOwned(address)": {
        "details": "Gets Iterate through the list of existing tokens and return the indexes\r       and balances of the tokens owner by the user\r",
        "params": {
          "_owner": "The adddress we are checking\r"
        },
        "return": "indexes The tokenIds\rbalances The balances of each token\r"
      },
      "totalSupply()": {
        "details": "Gets the total amount of tokens stored by the contract\r",
        "return": "uint256 representing the total amount of tokens\r"
      }
    }
  },
  "userdoc": {
    "methods": {
      "CardGetterName(string)": {
        "notice": "#DEV Total possible combos for regular card = 10^25\r"
      }
    }
  }
}