{
  "contractName": "ERC721XTokenNFT",
  "abi": [
    {
      "constant": true,
      "inputs": [
        {
          "name": "_interfaceId",
          "type": "bytes4"
        }
      ],
      "name": "supportsInterface",
      "outputs": [
        {
          "name": "",
          "type": "bool"
        }
      ],
      "payable": false,
      "stateMutability": "view",
      "type": "function"
    },
    {
      "constant": true,
      "inputs": [],
      "name": "InterfaceId_ERC165",
      "outputs": [
        {
          "name": "",
          "type": "bytes4"
        }
      ],
      "payable": false,
      "stateMutability": "view",
      "type": "function"
    },
    {
      "inputs": [],
      "payable": false,
      "stateMutability": "nonpayable",
      "type": "constructor"
    },
    {
      "anonymous": false,
      "inputs": [
        {
          "indexed": true,
          "name": "_from",
          "type": "address"
        },
        {
          "indexed": true,
          "name": "_to",
          "type": "address"
        },
        {
          "indexed": true,
          "name": "_tokenId",
          "type": "uint256"
        }
      ],
      "name": "Transfer",
      "type": "event"
    },
    {
      "anonymous": false,
      "inputs": [
        {
          "indexed": true,
          "name": "_owner",
          "type": "address"
        },
        {
          "indexed": true,
          "name": "_approved",
          "type": "address"
        },
        {
          "indexed": true,
          "name": "_tokenId",
          "type": "uint256"
        }
      ],
      "name": "Approval",
      "type": "event"
    },
    {
      "anonymous": false,
      "inputs": [
        {
          "indexed": true,
          "name": "_owner",
          "type": "address"
        },
        {
          "indexed": true,
          "name": "_operator",
          "type": "address"
        },
        {
          "indexed": false,
          "name": "_approved",
          "type": "bool"
        }
      ],
      "name": "ApprovalForAll",
      "type": "event"
    },
    {
      "constant": true,
      "inputs": [],
      "name": "name",
      "outputs": [
        {
          "name": "",
          "type": "string"
        }
      ],
      "payable": false,
      "stateMutability": "view",
      "type": "function"
    },
    {
      "constant": true,
      "inputs": [],
      "name": "symbol",
      "outputs": [
        {
          "name": "",
          "type": "string"
        }
      ],
      "payable": false,
      "stateMutability": "view",
      "type": "function"
    },
    {
      "constant": true,
      "inputs": [
        {
          "name": "_tokenId",
          "type": "uint256"
        }
      ],
      "name": "exists",
      "outputs": [
        {
          "name": "",
          "type": "bool"
        }
      ],
      "payable": false,
      "stateMutability": "view",
      "type": "function"
    },
    {
      "constant": true,
      "inputs": [],
      "name": "implementsERC721",
      "outputs": [
        {
          "name": "",
          "type": "bool"
        }
      ],
      "payable": false,
      "stateMutability": "pure",
      "type": "function"
    },
    {
      "constant": true,
      "inputs": [],
      "name": "totalSupply",
      "outputs": [
        {
          "name": "",
          "type": "uint256"
        }
      ],
      "payable": false,
      "stateMutability": "view",
      "type": "function"
    },
    {
      "constant": true,
      "inputs": [
        {
          "name": "_index",
          "type": "uint256"
        }
      ],
      "name": "tokenByIndex",
      "outputs": [
        {
          "name": "",
          "type": "uint256"
        }
      ],
      "payable": false,
      "stateMutability": "view",
      "type": "function"
    },
    {
      "constant": true,
      "inputs": [
        {
          "name": "_tokenId",
          "type": "uint256"
        }
      ],
      "name": "ownerOf",
      "outputs": [
        {
          "name": "",
          "type": "address"
        }
      ],
      "payable": false,
      "stateMutability": "view",
      "type": "function"
    },
    {
      "constant": true,
      "inputs": [
        {
          "name": "_owner",
          "type": "address"
        }
      ],
      "name": "tokensOwned",
      "outputs": [
        {
          "name": "indexes",
          "type": "uint256[]"
        },
        {
          "name": "balances",
          "type": "uint256[]"
        }
      ],
      "payable": false,
      "stateMutability": "view",
      "type": "function"
    },
    {
      "constant": true,
      "inputs": [
        {
          "name": "_address",
          "type": "address"
        },
        {
          "name": "_tokenId",
          "type": "uint256"
        }
      ],
      "name": "balanceOf",
      "outputs": [
        {
          "name": "",
          "type": "uint256"
        }
      ],
      "payable": false,
      "stateMutability": "view",
      "type": "function"
    },
    {
      "constant": true,
      "inputs": [
        {
          "name": "_owner",
          "type": "address"
        }
      ],
      "name": "balanceOf",
      "outputs": [
        {
          "name": "balance",
          "type": "uint256"
        }
      ],
      "payable": false,
      "stateMutability": "view",
      "type": "function"
    },
    {
      "constant": false,
      "inputs": [
        {
          "name": "_from",
          "type": "address"
        },
        {
          "name": "_to",
          "type": "address"
        },
        {
          "name": "_tokenId",
          "type": "uint256"
        },
        {
          "name": "_data",
          "type": "bytes"
        }
      ],
      "name": "safeTransferFrom",
      "outputs": [],
      "payable": false,
      "stateMutability": "nonpayable",
      "type": "function"
    },
    {
      "constant": false,
      "inputs": [
        {
          "name": "_from",
          "type": "address"
        },
        {
          "name": "_to",
          "type": "address"
        },
        {
          "name": "_tokenId",
          "type": "uint256"
        }
      ],
      "name": "safeTransferFrom",
      "outputs": [],
      "payable": false,
      "stateMutability": "nonpayable",
      "type": "function"
    },
    {
      "constant": false,
      "inputs": [
        {
          "name": "_from",
          "type": "address"
        },
        {
          "name": "_to",
          "type": "address"
        },
        {
          "name": "_tokenId",
          "type": "uint256"
        }
      ],
      "name": "transferFrom",
      "outputs": [],
      "payable": false,
      "stateMutability": "nonpayable",
      "type": "function"
    },
    {
      "constant": true,
      "inputs": [
        {
          "name": "_tokenId",
          "type": "uint256"
        }
      ],
      "name": "tokenURI",
      "outputs": [
        {
          "name": "tokenUri",
          "type": "string"
        }
      ],
      "payable": false,
      "stateMutability": "view",
      "type": "function"
    },
    {
      "constant": false,
      "inputs": [
        {
          "name": "_operator",
          "type": "address"
        },
        {
          "name": "_approved",
          "type": "bool"
        }
      ],
      "name": "setApprovalForAll",
      "outputs": [],
      "payable": false,
      "stateMutability": "nonpayable",
      "type": "function"
    },
    {
      "constant": false,
      "inputs": [
        {
          "name": "_to",
          "type": "address"
        },
        {
          "name": "_tokenId",
          "type": "uint256"
        }
      ],
      "name": "approve",
      "outputs": [],
      "payable": false,
      "stateMutability": "nonpayable",
      "type": "function"
    },
    {
      "constant": true,
      "inputs": [
        {
          "name": "_tokenId",
          "type": "uint256"
        }
      ],
      "name": "getApproved",
      "outputs": [
        {
          "name": "",
          "type": "address"
        }
      ],
      "payable": false,
      "stateMutability": "view",
      "type": "function"
    },
    {
      "constant": true,
      "inputs": [
        {
          "name": "_owner",
          "type": "address"
        },
        {
          "name": "_operator",
          "type": "address"
        }
      ],
      "name": "isApprovedForAll",
      "outputs": [
        {
          "name": "isOperator",
          "type": "bool"
        }
      ],
      "payable": false,
      "stateMutability": "view",
      "type": "function"
    },
    {
      "constant": true,
      "inputs": [
        {
          "name": "_owner",
          "type": "address"
        },
        {
          "name": "_index",
          "type": "uint256"
        }
      ],
      "name": "tokenOfOwnerByIndex",
      "outputs": [
        {
          "name": "_tokenId",
          "type": "uint256"
        }
      ],
      "payable": false,
      "stateMutability": "view",
      "type": "function"
    }
  ],
  "bytecode": "0x608060405234801561001057600080fd5b5061004c6301ffc9a77c01000000000000000000000000000000000000000000000000000000000261008c640100000000026401000000009004565b610087635b5e139f7c01000000000000000000000000000000000000000000000000000000000261008c640100000000026401000000009004565b610149565b63ffffffff7c010000000000000000000000000000000000000000000000000000000002817bffffffffffffffffffffffffffffffffffffffffffffffffffffffff1916141515156100dd57600080fd5b6001600080837bffffffffffffffffffffffffffffffffffffffffffffffffffffffff19167bffffffffffffffffffffffffffffffffffffffffffffffffffffffff1916815260200190815260200160002060006101000a81548160ff02191690831515021790555050565b611f6080620001596000396000f30060806040526004361061011c576000357c0100000000000000000000000000000000000000000000000000000000900463ffffffff168062fdd58e1461012157806301ffc9a71461018257806306fdde03146101e6578063081812fc14610276578063095ea7b3146102e35780631051db341461033057806318160ddd1461035f57806319fa8f501461038a57806321cda790146103f357806323b872dd146104d35780632f745c591461054057806342842e0e146105a15780634f558e791461060e5780634f6ccce7146106535780636352211e1461069457806370a082311461070157806395d89b4114610758578063a22cb465146107e8578063b88d4fde14610837578063c87b56dd146108ea578063e985e9c514610990575b600080fd5b34801561012d57600080fd5b5061016c600480360381019080803573ffffffffffffffffffffffffffffffffffffffff16906020019092919080359060200190929190505050610a0b565b6040518082815260200191505060405180910390f35b34801561018e57600080fd5b506101cc60048036038101908080357bffffffffffffffffffffffffffffffffffffffffffffffffffffffff19169060200190929190505050610a8a565b604051808215151515815260200191505060405180910390f35b3480156101f257600080fd5b506101fb610af1565b6040518080602001828103825283818151815260200191508051906020019080838360005b8381101561023b578082015181840152602081019050610220565b50505050905090810190601f1680156102685780820380516001836020036101000a031916815260200191505b509250505060405180910390f35b34801561028257600080fd5b506102a160048036038101908080359060200190929190505050610b2e565b604051808273ffffffffffffffffffffffffffffffffffffffff1673ffffffffffffffffffffffffffffffffffffffff16815260200191505060405180910390f35b3480156102ef57600080fd5b5061032e600480360381019080803573ffffffffffffffffffffffffffffffffffffffff16906020019092919080359060200190929190505050610b6b565b005b34801561033c57600080fd5b50610345610cb0565b604051808215151515815260200191505060405180910390f35b34801561036b57600080fd5b50610374610cb9565b6040518082815260200191505060405180910390f35b34801561039657600080fd5b5061039f610cc6565b60405180827bffffffffffffffffffffffffffffffffffffffffffffffffffffffff19167bffffffffffffffffffffffffffffffffffffffffffffffffffffffff1916815260200191505060405180910390f35b3480156103ff57600080fd5b50610434600480360381019080803573ffffffffffffffffffffffffffffffffffffffff169060200190929190505050610ced565b604051808060200180602001838103835285818151815260200191508051906020019060200280838360005b8381101561047b578082015181840152602081019050610460565b50505050905001838103825284818151815260200191508051906020019060200280838360005b838110156104bd5780820151818401526020810190506104a2565b5050505090500194505050505060405180910390f35b3480156104df57600080fd5b5061053e600480360381019080803573ffffffffffffffffffffffffffffffffffffffff169060200190929190803573ffffffffffffffffffffffffffffffffffffffff16906020019092919080359060200190929190505050610ef8565b005b34801561054c57600080fd5b5061058b600480360381019080803573ffffffffffffffffffffffffffffffffffffffff16906020019092919080359060200190929190505050610f08565b6040518082815260200191505060405180910390f35b3480156105ad57600080fd5b5061060c600480360381019080803573ffffffffffffffffffffffffffffffffffffffff169060200190929190803573ffffffffffffffffffffffffffffffffffffffff16906020019092919080359060200190929190505050610f13565b005b34801561061a57600080fd5b5061063960048036038101908080359060200190929190505050610f34565b604051808215151515815260200191505060405180910390f35b34801561065f57600080fd5b5061067e60048036038101908080359060200190929190505050610f54565b6040518082815260200191505060405180910390f35b3480156106a057600080fd5b506106bf60048036038101908080359060200190929190505050610f8c565b604051808273ffffffffffffffffffffffffffffffffffffffff1673ffffffffffffffffffffffffffffffffffffffff16815260200191505060405180910390f35b34801561070d57600080fd5b50610742600480360381019080803573ffffffffffffffffffffffffffffffffffffffff1690602001909291905050506110a0565b6040518082815260200191505060405180910390f35b34801561076457600080fd5b5061076d6110ba565b6040518080602001828103825283818151815260200191508051906020019080838360005b838110156107ad578082015181840152602081019050610792565b50505050905090810190601f1680156107da5780820380516001836020036101000a031916815260200191505b509250505060405180910390f35b3480156107f457600080fd5b50610835600480360381019080803573ffffffffffffffffffffffffffffffffffffffff1690602001909291908035151590602001909291905050506110f7565b005b34801561084357600080fd5b506108e8600480360381019080803573ffffffffffffffffffffffffffffffffffffffff169060200190929190803573ffffffffffffffffffffffffffffffffffffffff16906020019092919080359060200190929190803590602001908201803590602001908080601f01602080910402602001604051908101604052809392919081815260200183838082843782019150505050505091929192905050506111f8565b005b3480156108f657600080fd5b50610915600480360381019080803590602001909291905050506112af565b6040518080602001828103825283818151815260200191508051906020019080838360005b8381101561095557808201518184015260208101905061093a565b50505050905090810190601f1680156109825780820380516001836020036101000a031916815260200191505b509250505060405180910390f35b34801561099c57600080fd5b506109f1600480360381019080803573ffffffffffffffffffffffffffffffffffffffff169060200190929190803573ffffffffffffffffffffffffffffffffffffffff16906020019092919050505061168b565b604051808215151515815260200191505060405180910390f35b6000806000610a198461171f565b91509150610a8081600260008873ffffffffffffffffffffffffffffffffffffffff1673ffffffffffffffffffffffffffffffffffffffff16815260200190815260200160002060008581526020019081526020016000205461175c90919063ffffffff16565b9250505092915050565b6000806000837bffffffffffffffffffffffffffffffffffffffffffffffffffffffff19167bffffffffffffffffffffffffffffffffffffffffffffffffffffffff1916815260200190815260200160002060009054906101000a900460ff169050919050565b60606040805190810160405280600f81526020017f45524337323158546f6b656e4e46540000000000000000000000000000000000815250905090565b60006005600083815260200190815260200160002060009054906101000a900473ffffffffffffffffffffffffffffffffffffffff169050919050565b6000610b7682610f8c565b90508073ffffffffffffffffffffffffffffffffffffffff168373ffffffffffffffffffffffffffffffffffffffff1614151515610bb357600080fd5b8073ffffffffffffffffffffffffffffffffffffffff163373ffffffffffffffffffffffffffffffffffffffff161480610bf35750610bf2813361168b565b5b1515610bfe57600080fd5b826005600084815260200190815260200160002060006101000a81548173ffffffffffffffffffffffffffffffffffffffff021916908373ffffffffffffffffffffffffffffffffffffffff160217905550818373ffffffffffffffffffffffffffffffffffffffff168273ffffffffffffffffffffffffffffffffffffffff167f8c5be1e5ebec7d5bd14f71427d1e84f3dd0314c0f7b2291e5b200ac8c7c3b92560405160405180910390a4505050565b60006001905090565b6000600180549050905090565b6301ffc9a77c01000000000000000000000000000000000000000000000000000000000281565b60608060006060806000806000606080610d05610cb9565b975087604051908082528060200260200182016040528015610d365781602001602082028038833980820191505090505b50965087604051908082528060200260200182016040528015610d685781602001602082028038833980820191505090505b509550600093505b87841015610dff57600184815481101515610d8757fe5b906000526020600020015492506000610da08c85610a0b565b1115610df257610db08b84610a0b565b8686815181101515610dbe57fe5b9060200190602002018181525050828786815181101515610ddb57fe5b906020019060200201818152505084806001019550505b8380600101945050610d70565b84604051908082528060200260200182016040528015610e2e5781602001602082028038833980820191505090505b50915084604051908082528060200260200182016040528015610e605781602001602082028038833980820191505090505b509050600093505b84841015610ee5578584815181101515610e7e57fe5b906020019060200201518285815181101515610e9657fe5b90602001906020020181815250508684815181101515610eb257fe5b906020019060200201518185815181101515610eca57fe5b90602001906020020181815250508380600101945050610e68565b8082995099505050505050505050915091565b610f03838383611790565b505050565b600080905092915050565b610f2f83838360206040519081016040528060008152506111f8565b505050565b600080600660008481526020019081526020016000205414159050919050565b6000610f5e610cb9565b82101515610f6b57600080fd5b600182815481101515610f7a57fe5b90600052602060002001549050919050565b60008073ffffffffffffffffffffffffffffffffffffffff166003600084815260200190815260200160002060009054906101000a900473ffffffffffffffffffffffffffffffffffffffff1673ffffffffffffffffffffffffffffffffffffffff1614151515611065576040517f08c379a00000000000000000000000000000000000000000000000000000000081526004018080602001828103825260138152602001807f436f696e20646f6573206e6f742065786973740000000000000000000000000081525060200191505060405180910390fd5b6003600083815260200190815260200160002060009054906101000a900473ffffffffffffffffffffffffffffffffffffffff169050919050565b600060606110ad83610ced565b9150508051915050919050565b60606040805190810160405280600781526020017f4552433732315800000000000000000000000000000000000000000000000000815250905090565b80600460003373ffffffffffffffffffffffffffffffffffffffff1673ffffffffffffffffffffffffffffffffffffffff16815260200190815260200160002060008473ffffffffffffffffffffffffffffffffffffffff1673ffffffffffffffffffffffffffffffffffffffff16815260200190815260200160002060006101000a81548160ff0219169083151502179055508173ffffffffffffffffffffffffffffffffffffffff163373ffffffffffffffffffffffffffffffffffffffff167f17307eab39ab6107e8899845ad3d59bd9653f200f220920489ca2b5937696c3183604051808215151515815260200191505060405180910390a35050565b611203848484611790565b61120f84848484611943565b15156112a9576040517f08c379a00000000000000000000000000000000000000000000000000000000081526004018080602001828103825260328152602001807f53656e7420746f206120636f6e7472616374207768696368206973206e6f742081526020017f616e20455243373231207265636569766572000000000000000000000000000081525060400191505060405180910390fd5b50505050565b6060806112bb83610f34565b151561132f576040517f08c379a00000000000000000000000000000000000000000000000000000000081526004018080602001828103825260138152602001807f546f6b656e20646f65736e27742065786973740000000000000000000000000081525060200191505060405180910390fd5b606060405190810160405280603181526020017f68747470733a2f2f72696e6b6562792e6c6f6f6d2e67616d65732f657263373281526020017f312f7a6d622f3030303030302e6a736f6e0000000000000000000000000000008152509150819050600a620186a0848115156113a157fe5b048115156113ab57fe5b066030017f0100000000000000000000000000000000000000000000000000000000000000028160268151811015156113e057fe5b9060200101907effffffffffffffffffffffffffffffffffffffffffffffffffffffffffffff1916908160001a905350600a6127108481151561141f57fe5b0481151561142957fe5b066030017f01000000000000000000000000000000000000000000000000000000000000000281602781518110151561145e57fe5b9060200101907effffffffffffffffffffffffffffffffffffffffffffffffffffffffffffff1916908160001a905350600a6103e88481151561149d57fe5b048115156114a757fe5b066030017f0100000000000000000000000000000000000000000000000000000000000000028160288151811015156114dc57fe5b9060200101907effffffffffffffffffffffffffffffffffffffffffffffffffffffffffffff1916908160001a905350600a60648481151561151a57fe5b0481151561152457fe5b066030017f01000000000000000000000000000000000000000000000000000000000000000281602981518110151561155957fe5b9060200101907effffffffffffffffffffffffffffffffffffffffffffffffffffffffffffff1916908160001a905350600a808481151561159657fe5b048115156115a057fe5b066030017f01000000000000000000000000000000000000000000000000000000000000000281602a8151811015156115d557fe5b9060200101907effffffffffffffffffffffffffffffffffffffffffffffffffffffffffffff1916908160001a905350600a60018481151561161357fe5b0481151561161d57fe5b066030017f01000000000000000000000000000000000000000000000000000000000000000281602b81518110151561165257fe5b9060200101907effffffffffffffffffffffffffffffffffffffffffffffffffffffffffffff1916908160001a90535081915050919050565b6000600460008473ffffffffffffffffffffffffffffffffffffffff1673ffffffffffffffffffffffffffffffffffffffff16815260200190815260200160002060008373ffffffffffffffffffffffffffffffffffffffff1673ffffffffffffffffffffffffffffffffffffffff16815260200190815260200160002060009054906101000a900460ff16905092915050565b6000806101006010840281151561173257fe5b049150601061010081151561174357fe5b048381151561174e57fe5b069050818191509150915091565b60008060006001601060019060020a02039150600184016010026101000390508181869060020a9004169250505092915050565b600160066000838152602001908152602001600020541415156117b257600080fd5b6117c5836117bf83610f8c565b83611b65565b15156117d057600080fd5b600073ffffffffffffffffffffffffffffffffffffffff168273ffffffffffffffffffffffffffffffffffffffff1614151515611875576040517f08c379a00000000000000000000000000000000000000000000000000000000081526004018080602001828103825260128152602001807f496e76616c696420746f2061646472657373000000000000000000000000000081525060200191505060405180910390fd5b611883838260006002611bee565b611891828260016002611bee565b816003600083815260200190815260200160002060006101000a81548173ffffffffffffffffffffffffffffffffffffffff021916908373ffffffffffffffffffffffffffffffffffffffff160217905550808273ffffffffffffffffffffffffffffffffffffffff168473ffffffffffffffffffffffffffffffffffffffff167fddf252ad1be2c89b69c2b068fc378daa952ba7f163c4a11628f55a4df523b3ef60405160405180910390a4505050565b6000806119658573ffffffffffffffffffffffffffffffffffffffff16611cc1565b15156119745760019150611b5c565b8473ffffffffffffffffffffffffffffffffffffffff1663150b7a02338887876040518563ffffffff167c0100000000000000000000000000000000000000000000000000000000028152600401808573ffffffffffffffffffffffffffffffffffffffff1673ffffffffffffffffffffffffffffffffffffffff1681526020018473ffffffffffffffffffffffffffffffffffffffff1673ffffffffffffffffffffffffffffffffffffffff16815260200183815260200180602001828103825283818151815260200191508051906020019080838360005b83811015611a69578082015181840152602081019050611a4e565b50505050905090810190601f168015611a965780820380516001836020036101000a031916815260200191505b5095505050505050602060405180830381600087803b158015611ab857600080fd5b505af1158015611acc573d6000803e3d6000fd5b505050506040513d6020811015611ae257600080fd5b8101908080519060200190929190505050905063150b7a027c0100000000000000000000000000000000000000000000000000000000027bffffffffffffffffffffffffffffffffffffffffffffffffffffffff1916817bffffffffffffffffffffffffffffffffffffffffffffffffffffffff19161491505b50949350505050565b60008273ffffffffffffffffffffffffffffffffffffffff168473ffffffffffffffffffffffffffffffffffffffff161480611bd457508373ffffffffffffffffffffffffffffffffffffffff16611bbc83610b2e565b73ffffffffffffffffffffffffffffffffffffffff16145b80611be55750611be4838561168b565b5b90509392505050565b600080611bfa8561171f565b91509150611c65818585600260008b73ffffffffffffffffffffffffffffffffffffffff1673ffffffffffffffffffffffffffffffffffffffff168152602001908152602001600020600087815260200190815260200160002054611cd4909392919063ffffffff16565b600260008873ffffffffffffffffffffffffffffffffffffffff1673ffffffffffffffffffffffffffffffffffffffff168152602001908152602001600020600084815260200190815260200160002081905550505050505050565b600080823b905060008111915050919050565b60008060006002811115611ce457fe5b836002811115611cf057fe5b1415611d2657611d00868661175c565b9050611d1f8686611d1a8785611e2190919063ffffffff16565b611e3d565b9150611e15565b60016002811115611d3357fe5b836002811115611d3f57fe5b1415611d7557611d4f868661175c565b9050611d6e8686611d698785611f1b90919063ffffffff16565b611e3d565b9150611e14565b600280811115611d8157fe5b836002811115611d8d57fe5b1415611da557611d9e868686611e3d565b9150611e13565b6040517f08c379a00000000000000000000000000000000000000000000000000000000081526004018080602001828103825260118152602001807f496e76616c6964206f7065726174696f6e00000000000000000000000000000081525060200191505060405180910390fd5b5b5b81915050949350505050565b60008183019050828110151515611e3457fe5b80905092915050565b6000806000601060020a84101515611ee3576040517f08c379a00000000000000000000000000000000000000000000000000000000081526004018080602001828103825260238152602001807f416d6f756e7420746f20777269746520696e2062696e20697320746f6f206c6181526020017f726765000000000000000000000000000000000000000000000000000000000081525060400191505060405180910390fd5b6001601060019060020a020391506001850160100261010003905080849060020a0281839060020a0219871617925050509392505050565b6000828211151515611f2957fe5b8183039050929150505600a165627a7a723058207a44b9bc2b0505a8c5d740f13c3245f77db98a220f63cabaa9a86fbac812d0ed0029",
  "source": "pragma solidity ^0.4.24;\r\n\r\nimport \"../../../../openzeppelin-solidity/contracts/introspection/SupportsInterfaceWithLookup.sol\";\r\nimport \"../../../../openzeppelin-solidity/contracts/token/ERC721/ERC721.sol\";\r\nimport \"../../../../openzeppelin-solidity/contracts/token/ERC721/ERC721Receiver.sol\";\r\nimport \"../../../../openzeppelin-solidity/contracts/AddressUtils.sol\";\r\n\r\nimport \"../../Libraries/ObjectsLib.sol\";\r\n\r\n\r\n// Packed NFT that has storage which is batch transfer compatible\r\ncontract ERC721XTokenNFT is ERC721, SupportsInterfaceWithLookup {\r\n\r\n    using ObjectLib for ObjectLib.Operations;\r\n    using ObjectLib for uint256;\r\n    using AddressUtils for address;\r\n\r\n    // bytes4 internal constant InterfaceId_ERC721Enumerable = 0x780e9d63;\r\n    bytes4 internal constant ERC721_RECEIVED = 0x150b7a02;\r\n    bytes4 internal constant InterfaceId_ERC721Metadata = 0x5b5e139f;\r\n\r\n    uint256[] internal allTokens;\r\n    mapping(address => mapping(uint256 => uint256)) packedTokenBalance;\r\n    mapping(uint256 => address) internal tokenOwner;\r\n    mapping(address => mapping(address => bool)) operators;\r\n    mapping (uint256 => address) internal tokenApprovals;\r\n    mapping(uint256 => uint256) tokenType;\r\n\r\n    uint256 constant NFT = 1;\r\n    uint256 constant FT = 2;\r\n\r\n\r\n    constructor() public {\r\n        // _registerInterface(InterfaceId_ERC721Enumerable);\r\n        _registerInterface(InterfaceId_ERC721Metadata);\r\n    }\r\n\r\n    function name() external view returns (string) {\r\n        return \"ERC721XTokenNFT\";\r\n    }\r\n\r\n    function symbol() external view returns (string) {\r\n        return \"ERC721X\";\r\n    }\r\n\r\n    /**\r\n     * @dev Returns whether the specified token exists\r\n     * @param _tokenId uint256 ID of the token to query the existence of\r\n     * @return whether the token exists\r\n     */\r\n    function exists(uint256 _tokenId) public view returns (bool) {\r\n        return tokenType[_tokenId] != 0;\r\n    }\r\n\r\n    function implementsERC721() public pure returns (bool) {\r\n        return true;\r\n    }\r\n\r\n    /**\r\n     * @dev Gets the total amount of tokens stored by the contract\r\n     * @return uint256 representing the total amount of tokens\r\n     */\r\n    function totalSupply() public view returns (uint256) {\r\n        return allTokens.length;\r\n    }\r\n\r\n    /**\r\n     * @dev Gets the token ID at a given index of all the tokens in this contract\r\n     * Reverts if the index is greater or equal to the total number of tokens\r\n     * @param _index uint256 representing the index to be accessed of the tokens list\r\n     * @return uint256 token ID at the given index of the tokens list\r\n     */\r\n    function tokenByIndex(uint256 _index) public view returns (uint256) {\r\n        require(_index < totalSupply());\r\n        return allTokens[_index];\r\n    }\r\n\r\n    /**\r\n     * @dev Gets the owner of a given NFT\r\n     * @param _tokenId uint256 representing the unique token identifier\r\n     * @return address the owner of the token\r\n     */\r\n    function ownerOf(uint256 _tokenId) public view returns (address) {\r\n        require(tokenOwner[_tokenId] != address(0), \"Coin does not exist\");\r\n        return tokenOwner[_tokenId];\r\n    }\r\n\r\n    /**\r\n     * @dev Gets Iterate through the list of existing tokens and return the indexes\r\n     *        and balances of the tokens owner by the user\r\n     * @param _owner The adddress we are checking\r\n     * @return indexes The tokenIds\r\n     * @return balances The balances of each token\r\n     */\r\n    function tokensOwned(address _owner) public view returns (uint256[] indexes, uint256[] balances) {\r\n        uint256 numTokens = totalSupply();\r\n        uint256[] memory tokenIndexes = new uint256[](numTokens);\r\n        uint256[] memory tempTokens = new uint256[](numTokens);\r\n\r\n        uint256 count;\r\n        for (uint256 i = 0; i < numTokens; i++) {\r\n            uint256 tokenId = allTokens[i];\r\n            if (balanceOf(_owner, tokenId) > 0) {\r\n                tempTokens[count] = balanceOf(_owner, tokenId);\r\n                tokenIndexes[count] = tokenId;\r\n                count++;\r\n            }\r\n        }\r\n\r\n        // copy over the data to a correct size array\r\n        uint256[] memory _ownedTokens = new uint256[](count);\r\n        uint256[] memory _ownedTokensIndexes = new uint256[](count);\r\n\r\n        for (i = 0; i < count; i++) {\r\n            _ownedTokens[i] = tempTokens[i];\r\n            _ownedTokensIndexes[i] = tokenIndexes[i];\r\n        }\r\n\r\n        return (_ownedTokensIndexes, _ownedTokens);\r\n    }\r\n\r\n    /**\r\n     *  @dev Gets the number of tokens owned by the address we are checking\r\n     *  @param _owner The adddress we are checking\r\n     *  @return balance The unique amount of tokens owned\r\n     */\r\n    function balanceOf(address _owner) public view returns (uint256 balance) {\r\n        (,uint256[] memory tokens) = tokensOwned(_owner);\r\n        return tokens.length;\r\n    }\r\n\r\n    /**\r\n     * @dev return the _tokenId type' balance of _address\r\n     * @param _address Address to query balance of\r\n     * @param _tokenId type to query balance of\r\n     * @return Amount of objects of a given type ID\r\n     */\r\n    function balanceOf(address _address, uint256 _tokenId) public view returns (uint256) {\r\n        (uint256 bin, uint256 index) = _tokenId.getTokenBinIndex();\r\n        return packedTokenBalance[_address][bin].getValueInBin(index);\r\n    }\r\n\r\n    function safeTransferFrom(\r\n        address _from,\r\n        address _to,\r\n        uint256 _tokenId\r\n    )\r\n        public\r\n    {\r\n        safeTransferFrom(_from, _to, _tokenId, \"\");\r\n    }\r\n\r\n    function safeTransferFrom(\r\n        address _from,\r\n        address _to,\r\n        uint256 _tokenId,\r\n        bytes _data\r\n    )\r\n        public\r\n    {\r\n        _transferFrom(_from, _to, _tokenId);\r\n        require(\r\n            checkAndCallSafeTransfer(_from, _to, _tokenId, _data),\r\n            \"Sent to a contract which is not an ERC721 receiver\"\r\n        );\r\n    }\r\n\r\n    function transferFrom(address _from, address _to, uint256 _tokenId) public {\r\n        _transferFrom(_from, _to, _tokenId);\r\n    }\r\n\r\n    function _transferFrom(address _from, address _to, uint256 _tokenId)\r\n        internal\r\n    {\r\n        require(tokenType[_tokenId] == NFT);\r\n        require(isApprovedOrOwner(_from, ownerOf(_tokenId), _tokenId));\r\n        require(_to != address(0), \"Invalid to address\");\r\n\r\n        _updateTokenBalance(_from, _tokenId, 0, ObjectLib.Operations.REPLACE);\r\n        _updateTokenBalance(_to, _tokenId, 1, ObjectLib.Operations.REPLACE);\r\n\r\n        tokenOwner[_tokenId] = _to;\r\n        emit Transfer(_from, _to, _tokenId);\r\n    }\r\n\r\n    function tokenURI(uint256 _tokenId) public view returns (string tokenUri) {\r\n        require(exists(_tokenId), \"Token doesn't exist\");\r\n        tokenUri = \"https://rinkeby.loom.games/erc721/zmb/000000.json\";\r\n\r\n        bytes memory _uriBytes = bytes(tokenUri);\r\n        _uriBytes[38] = byte(48+(_tokenId / 100000) % 10);\r\n        _uriBytes[39] = byte(48+(_tokenId / 10000) % 10);\r\n        _uriBytes[40] = byte(48+(_tokenId / 1000) % 10);\r\n        _uriBytes[41] = byte(48+(_tokenId / 100) % 10);\r\n        _uriBytes[42] = byte(48+(_tokenId / 10) % 10);\r\n        _uriBytes[43] = byte(48+(_tokenId / 1) % 10);\r\n\r\n        return tokenUri;\r\n    }\r\n\r\n    /**\r\n     * @dev Internal function to invoke `onERC721Received` on a target address\r\n     * The call is not executed if the target address is not a contract\r\n     * @param _from address representing the previous owner of the given token ID\r\n     * @param _to target address that will receive the tokens\r\n     * @param _tokenId uint256 ID of the token to be transferred\r\n     * @param _data bytes optional data to send along with the call\r\n     * @return whether the call correctly returned the expected magic value\r\n     */\r\n    function checkAndCallSafeTransfer(\r\n        address _from,\r\n        address _to,\r\n        uint256 _tokenId,\r\n        bytes _data\r\n    )\r\n        internal\r\n        returns (bool)\r\n    {\r\n        if (!_to.isContract()) {\r\n            return true;\r\n        }\r\n        bytes4 retval = ERC721Receiver(_to).onERC721Received(\r\n            msg.sender, _from, _tokenId, _data\r\n        );\r\n        return (retval == ERC721_RECEIVED);\r\n    }\r\n\r\n    /**\r\n     * @dev Will set _operator operator status to true or false\r\n     * @param _operator Address to changes operator status.\r\n     * @param _approved  _operator's new operator status (true or false)\r\n     */\r\n    function setApprovalForAll(address _operator, bool _approved) public {\r\n        // Update operator status\r\n        operators[msg.sender][_operator] = _approved;\r\n        emit ApprovalForAll(msg.sender, _operator, _approved);\r\n    }\r\n\r\n    /**\r\n     * @dev Approves another address to transfer the given token ID\r\n     * The zero address indicates there is no approved address.\r\n     * There can only be one approved address per token at a given time.\r\n     * Can only be called by the token owner or an approved operator.\r\n     * @param _to address to be approved for the given token ID\r\n     * @param _tokenId uint256 ID of the token to be approved\r\n     */\r\n    function approve(address _to, uint256 _tokenId) public {\r\n        address owner = ownerOf(_tokenId);\r\n        require(_to != owner);\r\n        require(msg.sender == owner || isApprovedForAll(owner, msg.sender));\r\n\r\n        tokenApprovals[_tokenId] = _to;\r\n        emit Approval(owner, _to, _tokenId);\r\n    }\r\n\r\n    function _mint(uint256 _tokenId, address _to) internal {\r\n        require(!exists(_tokenId), \"Error: Tried to mint duplicate token id\");\r\n        _updateTokenBalance(_to, _tokenId, 1, ObjectLib.Operations.REPLACE);\r\n        tokenOwner[_tokenId] = _to;\r\n        tokenType[_tokenId] = NFT;\r\n        allTokens.push(_tokenId);\r\n        emit Transfer(address(this), _to, _tokenId);\r\n    }\r\n\r\n    function _updateTokenBalance(\r\n        address _from,\r\n        uint256 _tokenId,\r\n        uint256 _amount,\r\n        ObjectLib.Operations op\r\n    )\r\n        internal\r\n    {\r\n        (uint256 bin, uint256 index) = _tokenId.getTokenBinIndex();\r\n        packedTokenBalance[_from][bin] =\r\n            packedTokenBalance[_from][bin].updateTokenBalance(\r\n                index, _amount, op\r\n        );\r\n    }\r\n\r\n\r\n    /**\r\n     * @dev Gets the approved address for a token ID, or zero if no address set\r\n     * @param _tokenId uint256 ID of the token to query the approval of\r\n     * @return address currently approved for the given token ID\r\n     */\r\n    function getApproved(uint256 _tokenId) public view returns (address) {\r\n        return tokenApprovals[_tokenId];\r\n    }\r\n\r\n    /**\r\n     * @dev Function that verifies whether _operator is an authorized operator of _tokenHolder.\r\n     * @param _operator The address of the operator to query status of\r\n     * @param _owner Address of the tokenHolder\r\n     * @return A uint256 specifying the amount of tokens still available for the spender.\r\n     */\r\n    function isApprovedForAll(address _owner, address _operator) public view returns (bool isOperator) {\r\n        return operators[_owner][_operator];\r\n    }\r\n\r\n    function isApprovedOrOwner(address _spender, address _owner, uint256 _tokenId)\r\n        internal\r\n        view\r\n        returns (bool)\r\n    {\r\n        return (\r\n            _spender == _owner ||\r\n            getApproved(_tokenId) == _spender ||\r\n            isApprovedForAll(_owner, _spender)\r\n        );\r\n    }\r\n\r\n    // FOR COMPATIBILITY WITH ERC721 Standard, UNUSED.\r\n    function tokenOfOwnerByIndex(address _owner, uint256 _index) public view returns (uint256 _tokenId) {_owner; _index; return 0;}\r\n}\r\n",
  "sourcePath": "C:\\Shared\\Omni Battle\\omnibattledev\\erc721x\\contracts\\Core\\ERC721X\\ERC721XTokenNFT.sol",
  "compiler": {
    "name": "solc",
    "version": "0.4.24+commit.e67f0147.Emscripten.clang"
  },
  "schemaVersion": "3.0.0",
  "updatedAt": "2018-12-28T17:12:18.435Z",
  "devdoc": {
    "methods": {
      "approve(address,uint256)": {
        "details": "Approves another address to transfer the given token ID\r The zero address indicates there is no approved address.\r There can only be one approved address per token at a given time.\r Can only be called by the token owner or an approved operator.\r",
        "params": {
          "_to": "address to be approved for the given token ID\r",
          "_tokenId": "uint256 ID of the token to be approved\r"
        }
      },
      "balanceOf(address)": {
        "details": "Gets the number of tokens owned by the address we are checking\r",
        "params": {
          "_owner": "The adddress we are checking\r"
        },
        "return": "balance The unique amount of tokens owned\r"
      },
      "balanceOf(address,uint256)": {
        "details": "return the _tokenId type' balance of _address\r",
        "params": {
          "_address": "Address to query balance of\r",
          "_tokenId": "type to query balance of\r"
        },
        "return": "Amount of objects of a given type ID\r"
      },
      "exists(uint256)": {
        "details": "Returns whether the specified token exists\r",
        "params": {
          "_tokenId": "uint256 ID of the token to query the existence of\r"
        },
        "return": "whether the token exists\r"
      },
      "getApproved(uint256)": {
        "details": "Gets the approved address for a token ID, or zero if no address set\r",
        "params": {
          "_tokenId": "uint256 ID of the token to query the approval of\r"
        },
        "return": "address currently approved for the given token ID\r"
      },
      "isApprovedForAll(address,address)": {
        "details": "Function that verifies whether _operator is an authorized operator of _tokenHolder.\r",
        "params": {
          "_operator": "The address of the operator to query status of\r",
          "_owner": "Address of the tokenHolder\r"
        },
        "return": "A uint256 specifying the amount of tokens still available for the spender.\r"
      },
      "ownerOf(uint256)": {
        "details": "Gets the owner of a given NFT\r",
        "params": {
          "_tokenId": "uint256 representing the unique token identifier\r"
        },
        "return": "address the owner of the token\r"
      },
      "setApprovalForAll(address,bool)": {
        "details": "Will set _operator operator status to true or false\r",
        "params": {
          "_approved": "_operator's new operator status (true or false)\r",
          "_operator": "Address to changes operator status.\r"
        }
      },
      "supportsInterface(bytes4)": {
        "details": "implement supportsInterface(bytes4) using a lookup table\r"
      },
      "tokenByIndex(uint256)": {
        "details": "Gets the token ID at a given index of all the tokens in this contract\r Reverts if the index is greater or equal to the total number of tokens\r",
        "params": {
          "_index": "uint256 representing the index to be accessed of the tokens list\r"
        },
        "return": "uint256 token ID at the given index of the tokens list\r"
      },
      "tokensOwned(address)": {
        "details": "Gets Iterate through the list of existing tokens and return the indexes\r       and balances of the tokens owner by the user\r",
        "params": {
          "_owner": "The adddress we are checking\r"
        },
        "return": "indexes The tokenIds\rbalances The balances of each token\r"
      },
      "totalSupply()": {
        "details": "Gets the total amount of tokens stored by the contract\r",
        "return": "uint256 representing the total amount of tokens\r"
      }
    }
  },
  "userdoc": {
    "methods": {}
  }
}